{
  "_format": "hh-sol-artifact-1",
  "contractName": "ETHW",
  "sourceName": "contracts/ETHW.sol",
  "abi": [
    {
      "inputs": [],
      "stateMutability": "nonpayable",
      "type": "constructor"
    },
    {
      "inputs": [
        {
          "internalType": "address",
          "name": "spender",
          "type": "address"
        },
        {
          "internalType": "uint256",
          "name": "allowance",
          "type": "uint256"
        },
        {
          "internalType": "uint256",
          "name": "needed",
          "type": "uint256"
        }
      ],
      "name": "ERC20InsufficientAllowance",
      "type": "error"
    },
    {
      "inputs": [
        {
          "internalType": "address",
          "name": "sender",
          "type": "address"
        },
        {
          "internalType": "uint256",
          "name": "balance",
          "type": "uint256"
        },
        {
          "internalType": "uint256",
          "name": "needed",
          "type": "uint256"
        }
      ],
      "name": "ERC20InsufficientBalance",
      "type": "error"
    },
    {
      "inputs": [
        {
          "internalType": "address",
          "name": "approver",
          "type": "address"
        }
      ],
      "name": "ERC20InvalidApprover",
      "type": "error"
    },
    {
      "inputs": [
        {
          "internalType": "address",
          "name": "receiver",
          "type": "address"
        }
      ],
      "name": "ERC20InvalidReceiver",
      "type": "error"
    },
    {
      "inputs": [
        {
          "internalType": "address",
          "name": "sender",
          "type": "address"
        }
      ],
      "name": "ERC20InvalidSender",
      "type": "error"
    },
    {
      "inputs": [
        {
          "internalType": "address",
          "name": "spender",
          "type": "address"
        }
      ],
      "name": "ERC20InvalidSpender",
      "type": "error"
    },
    {
      "anonymous": false,
      "inputs": [
        {
          "indexed": true,
          "internalType": "address",
          "name": "owner",
          "type": "address"
        },
        {
          "indexed": true,
          "internalType": "address",
          "name": "spender",
          "type": "address"
        },
        {
          "indexed": false,
          "internalType": "uint256",
          "name": "value",
          "type": "uint256"
        }
      ],
      "name": "Approval",
      "type": "event"
    },
    {
      "anonymous": false,
      "inputs": [
        {
          "indexed": true,
          "internalType": "address",
          "name": "from",
          "type": "address"
        },
        {
          "indexed": true,
          "internalType": "address",
          "name": "to",
          "type": "address"
        },
        {
          "indexed": false,
          "internalType": "uint256",
          "name": "value",
          "type": "uint256"
        }
      ],
      "name": "Transfer",
      "type": "event"
    },
    {
      "inputs": [
        {
          "internalType": "address",
          "name": "owner",
          "type": "address"
        },
        {
          "internalType": "address",
          "name": "spender",
          "type": "address"
        }
      ],
      "name": "allowance",
      "outputs": [
        {
          "internalType": "uint256",
          "name": "",
          "type": "uint256"
        }
      ],
      "stateMutability": "view",
      "type": "function"
    },
    {
      "inputs": [
        {
          "internalType": "address",
          "name": "spender",
          "type": "address"
        },
        {
          "internalType": "uint256",
          "name": "value",
          "type": "uint256"
        }
      ],
      "name": "approve",
      "outputs": [
        {
          "internalType": "bool",
          "name": "",
          "type": "bool"
        }
      ],
      "stateMutability": "nonpayable",
      "type": "function"
    },
    {
      "inputs": [
        {
          "internalType": "address",
          "name": "account",
          "type": "address"
        }
      ],
      "name": "balanceOf",
      "outputs": [
        {
          "internalType": "uint256",
          "name": "",
          "type": "uint256"
        }
      ],
      "stateMutability": "view",
      "type": "function"
    },
    {
      "inputs": [],
      "name": "decimals",
      "outputs": [
        {
          "internalType": "uint8",
          "name": "",
          "type": "uint8"
        }
      ],
      "stateMutability": "view",
      "type": "function"
    },
    {
      "inputs": [],
      "name": "name",
      "outputs": [
        {
          "internalType": "string",
          "name": "",
          "type": "string"
        }
      ],
      "stateMutability": "view",
      "type": "function"
    },
    {
      "inputs": [],
      "name": "symbol",
      "outputs": [
        {
          "internalType": "string",
          "name": "",
          "type": "string"
        }
      ],
      "stateMutability": "view",
      "type": "function"
    },
    {
      "inputs": [],
      "name": "totalSupply",
      "outputs": [
        {
          "internalType": "uint256",
          "name": "",
          "type": "uint256"
        }
      ],
      "stateMutability": "view",
      "type": "function"
    },
    {
      "inputs": [
        {
          "internalType": "address",
          "name": "to",
          "type": "address"
        },
        {
          "internalType": "uint256",
          "name": "value",
          "type": "uint256"
        }
      ],
      "name": "transfer",
      "outputs": [
        {
          "internalType": "bool",
          "name": "",
          "type": "bool"
        }
      ],
      "stateMutability": "nonpayable",
      "type": "function"
    },
    {
      "inputs": [
        {
          "internalType": "address",
          "name": "from",
          "type": "address"
        },
        {
          "internalType": "address",
          "name": "to",
          "type": "address"
        },
        {
          "internalType": "uint256",
          "name": "value",
          "type": "uint256"
        }
      ],
      "name": "transferFrom",
      "outputs": [
        {
          "internalType": "bool",
          "name": "",
          "type": "bool"
        }
      ],
      "stateMutability": "nonpayable",
      "type": "function"
    }
  ],
  "bytecode": "0x60806040526012600a61001291906104f0565b640ba43b7400610022919061053b565b60055534801561003157600080fd5b506040518060400160405280600581526020017f45746865720000000000000000000000000000000000000000000000000000008152506040518060400160405280600481526020017f455448570000000000000000000000000000000000000000000000000000000081525081600390816100ad91906107c3565b5080600490816100bd91906107c3565b5050506100d2336005546100d760201b60201c565b610986565b600073ffffffffffffffffffffffffffffffffffffffff168273ffffffffffffffffffffffffffffffffffffffff16036101495760006040517fec442f0500000000000000000000000000000000000000000000000000000000815260040161014091906108d6565b60405180910390fd5b61015b6000838361015f60201b60201c565b5050565b600073ffffffffffffffffffffffffffffffffffffffff168373ffffffffffffffffffffffffffffffffffffffff16036101b15780600260008282546101a591906108f1565b92505081905550610284565b60008060008573ffffffffffffffffffffffffffffffffffffffff1673ffffffffffffffffffffffffffffffffffffffff1681526020019081526020016000205490508181101561023d578381836040517fe450d38c00000000000000000000000000000000000000000000000000000000815260040161023493929190610934565b60405180910390fd5b8181036000808673ffffffffffffffffffffffffffffffffffffffff1673ffffffffffffffffffffffffffffffffffffffff16815260200190815260200160002081905550505b600073ffffffffffffffffffffffffffffffffffffffff168273ffffffffffffffffffffffffffffffffffffffff16036102cd578060026000828254039250508190555061031a565b806000808473ffffffffffffffffffffffffffffffffffffffff1673ffffffffffffffffffffffffffffffffffffffff168152602001908152602001600020600082825401925050819055505b8173ffffffffffffffffffffffffffffffffffffffff168373ffffffffffffffffffffffffffffffffffffffff167fddf252ad1be2c89b69c2b068fc378daa952ba7f163c4a11628f55a4df523b3ef83604051610377919061096b565b60405180910390a3505050565b7f4e487b7100000000000000000000000000000000000000000000000000000000600052601160045260246000fd5b60008160011c9050919050565b6000808291508390505b600185111561040a578086048111156103e6576103e5610384565b5b60018516156103f55780820291505b8081029050610403856103b3565b94506103ca565b94509492505050565b60008261042357600190506104df565b8161043157600090506104df565b8160018114610447576002811461045157610480565b60019150506104df565b60ff84111561046357610462610384565b5b8360020a91508482111561047a57610479610384565b5b506104df565b5060208310610133831016604e8410600b84101617156104b55782820a9050838111156104b0576104af610384565b5b6104df565b6104c284848460016103c0565b925090508184048111156104d9576104d8610384565b5b81810290505b9392505050565b6000819050919050565b60006104fb826104e6565b9150610506836104e6565b92506105337fffffffffffffffffffffffffffffffffffffffffffffffffffffffffffffffff8484610413565b905092915050565b6000610546826104e6565b9150610551836104e6565b925082820261055f816104e6565b9150828204841483151761057657610575610384565b5b5092915050565b600081519050919050565b7f4e487b7100000000000000000000000000000000000000000000000000000000600052604160045260246000fd5b7f4e487b7100000000000000000000000000000000000000000000000000000000600052602260045260246000fd5b600060028204905060018216806105fe57607f821691505b602082108103610611576106106105b7565b5b50919050565b60008190508160005260206000209050919050565b60006020601f8301049050919050565b600082821b905092915050565b6000600883026106797fffffffffffffffffffffffffffffffffffffffffffffffffffffffffffffffff8261063c565b610683868361063c565b95508019841693508086168417925050509392505050565b6000819050919050565b60006106c06106bb6106b6846104e6565b61069b565b6104e6565b9050919050565b6000819050919050565b6106da836106a5565b6106ee6106e6826106c7565b848454610649565b825550505050565b600090565b6107036106f6565b61070e8184846106d1565b505050565b5b81811015610732576107276000826106fb565b600181019050610714565b5050565b601f8211156107775761074881610617565b6107518461062c565b81016020851015610760578190505b61077461076c8561062c565b830182610713565b50505b505050565b600082821c905092915050565b600061079a6000198460080261077c565b1980831691505092915050565b60006107b38383610789565b9150826002028217905092915050565b6107cc8261057d565b67ffffffffffffffff8111156107e5576107e4610588565b5b6107ef82546105e6565b6107fa828285610736565b600060209050601f83116001811461082d576000841561081b578287015190505b61082585826107a7565b86555061088d565b601f19841661083b86610617565b60005b828110156108635784890151825560018201915060208501945060208101905061083e565b86831015610880578489015161087c601f891682610789565b8355505b6001600288020188555050505b505050505050565b600073ffffffffffffffffffffffffffffffffffffffff82169050919050565b60006108c082610895565b9050919050565b6108d0816108b5565b82525050565b60006020820190506108eb60008301846108c7565b92915050565b60006108fc826104e6565b9150610907836104e6565b925082820190508082111561091f5761091e610384565b5b92915050565b61092e816104e6565b82525050565b600060608201905061094960008301866108c7565b6109566020830185610925565b6109636040830184610925565b949350505050565b60006020820190506109806000830184610925565b92915050565b610e55806109956000396000f3fe608060405234801561001057600080fd5b50600436106100935760003560e01c8063313ce56711610066578063313ce5671461013457806370a082311461015257806395d89b4114610182578063a9059cbb146101a0578063dd62ed3e146101d057610093565b806306fdde0314610098578063095ea7b3146100b657806318160ddd146100e657806323b872dd14610104575b600080fd5b6100a0610200565b6040516100ad9190610aa9565b60405180910390f35b6100d060048036038101906100cb9190610b64565b610292565b6040516100dd9190610bbf565b60405180910390f35b6100ee6102b5565b6040516100fb9190610be9565b60405180910390f35b61011e60048036038101906101199190610c04565b6102bf565b60405161012b9190610bbf565b60405180910390f35b61013c6102ee565b6040516101499190610c73565b60405180910390f35b61016c60048036038101906101679190610c8e565b6102f7565b6040516101799190610be9565b60405180910390f35b61018a61033f565b6040516101979190610aa9565b60405180910390f35b6101ba60048036038101906101b59190610b64565b6103d1565b6040516101c79190610bbf565b60405180910390f35b6101ea60048036038101906101e59190610cbb565b6103f4565b6040516101f79190610be9565b60405180910390f35b60606003805461020f90610d2a565b80601f016020809104026020016040519081016040528092919081815260200182805461023b90610d2a565b80156102885780601f1061025d57610100808354040283529160200191610288565b820191906000526020600020905b81548152906001019060200180831161026b57829003601f168201915b5050505050905090565b60008061029d61047b565b90506102aa818585610483565b600191505092915050565b6000600254905090565b6000806102ca61047b565b90506102d7858285610495565b6102e2858585610529565b60019150509392505050565b60006012905090565b60008060008373ffffffffffffffffffffffffffffffffffffffff1673ffffffffffffffffffffffffffffffffffffffff168152602001908152602001600020549050919050565b60606004805461034e90610d2a565b80601f016020809104026020016040519081016040528092919081815260200182805461037a90610d2a565b80156103c75780601f1061039c576101008083540402835291602001916103c7565b820191906000526020600020905b8154815290600101906020018083116103aa57829003601f168201915b5050505050905090565b6000806103dc61047b565b90506103e9818585610529565b600191505092915050565b6000600160008473ffffffffffffffffffffffffffffffffffffffff1673ffffffffffffffffffffffffffffffffffffffff16815260200190815260200160002060008373ffffffffffffffffffffffffffffffffffffffff1673ffffffffffffffffffffffffffffffffffffffff16815260200190815260200160002054905092915050565b600033905090565b610490838383600161061d565b505050565b60006104a184846103f4565b90507fffffffffffffffffffffffffffffffffffffffffffffffffffffffffffffffff81146105235781811015610513578281836040517ffb8f41b200000000000000000000000000000000000000000000000000000000815260040161050a93929190610d6a565b60405180910390fd5b6105228484848403600061061d565b5b50505050565b600073ffffffffffffffffffffffffffffffffffffffff168373ffffffffffffffffffffffffffffffffffffffff160361059b5760006040517f96c6fd1e0000000000000000000000000000000000000000000000000000000081526004016105929190610da1565b60405180910390fd5b600073ffffffffffffffffffffffffffffffffffffffff168273ffffffffffffffffffffffffffffffffffffffff160361060d5760006040517fec442f050000000000000000000000000000000000000000000000000000000081526004016106049190610da1565b60405180910390fd5b6106188383836107f4565b505050565b600073ffffffffffffffffffffffffffffffffffffffff168473ffffffffffffffffffffffffffffffffffffffff160361068f5760006040517fe602df050000000000000000000000000000000000000000000000000000000081526004016106869190610da1565b60405180910390fd5b600073ffffffffffffffffffffffffffffffffffffffff168373ffffffffffffffffffffffffffffffffffffffff16036107015760006040517f94280d620000000000000000000000000000000000000000000000000000000081526004016106f89190610da1565b60405180910390fd5b81600160008673ffffffffffffffffffffffffffffffffffffffff1673ffffffffffffffffffffffffffffffffffffffff16815260200190815260200160002060008573ffffffffffffffffffffffffffffffffffffffff1673ffffffffffffffffffffffffffffffffffffffff1681526020019081526020016000208190555080156107ee578273ffffffffffffffffffffffffffffffffffffffff168473ffffffffffffffffffffffffffffffffffffffff167f8c5be1e5ebec7d5bd14f71427d1e84f3dd0314c0f7b2291e5b200ac8c7c3b925846040516107e59190610be9565b60405180910390a35b50505050565b600073ffffffffffffffffffffffffffffffffffffffff168373ffffffffffffffffffffffffffffffffffffffff160361084657806002600082825461083a9190610deb565b92505081905550610919565b60008060008573ffffffffffffffffffffffffffffffffffffffff1673ffffffffffffffffffffffffffffffffffffffff168152602001908152602001600020549050818110156108d2578381836040517fe450d38c0000000000000000000000000000000000000000000000000000000081526004016108c993929190610d6a565b60405180910390fd5b8181036000808673ffffffffffffffffffffffffffffffffffffffff1673ffffffffffffffffffffffffffffffffffffffff16815260200190815260200160002081905550505b600073ffffffffffffffffffffffffffffffffffffffff168273ffffffffffffffffffffffffffffffffffffffff160361096257806002600082825403925050819055506109af565b806000808473ffffffffffffffffffffffffffffffffffffffff1673ffffffffffffffffffffffffffffffffffffffff168152602001908152602001600020600082825401925050819055505b8173ffffffffffffffffffffffffffffffffffffffff168373ffffffffffffffffffffffffffffffffffffffff167fddf252ad1be2c89b69c2b068fc378daa952ba7f163c4a11628f55a4df523b3ef83604051610a0c9190610be9565b60405180910390a3505050565b600081519050919050565b600082825260208201905092915050565b60005b83811015610a53578082015181840152602081019050610a38565b60008484015250505050565b6000601f19601f8301169050919050565b6000610a7b82610a19565b610a858185610a24565b9350610a95818560208601610a35565b610a9e81610a5f565b840191505092915050565b60006020820190508181036000830152610ac38184610a70565b905092915050565b600080fd5b600073ffffffffffffffffffffffffffffffffffffffff82169050919050565b6000610afb82610ad0565b9050919050565b610b0b81610af0565b8114610b1657600080fd5b50565b600081359050610b2881610b02565b92915050565b6000819050919050565b610b4181610b2e565b8114610b4c57600080fd5b50565b600081359050610b5e81610b38565b92915050565b60008060408385031215610b7b57610b7a610acb565b5b6000610b8985828601610b19565b9250506020610b9a85828601610b4f565b9150509250929050565b60008115159050919050565b610bb981610ba4565b82525050565b6000602082019050610bd46000830184610bb0565b92915050565b610be381610b2e565b82525050565b6000602082019050610bfe6000830184610bda565b92915050565b600080600060608486031215610c1d57610c1c610acb565b5b6000610c2b86828701610b19565b9350506020610c3c86828701610b19565b9250506040610c4d86828701610b4f565b9150509250925092565b600060ff82169050919050565b610c6d81610c57565b82525050565b6000602082019050610c886000830184610c64565b92915050565b600060208284031215610ca457610ca3610acb565b5b6000610cb284828501610b19565b91505092915050565b60008060408385031215610cd257610cd1610acb565b5b6000610ce085828601610b19565b9250506020610cf185828601610b19565b9150509250929050565b7f4e487b7100000000000000000000000000000000000000000000000000000000600052602260045260246000fd5b60006002820490506001821680610d4257607f821691505b602082108103610d5557610d54610cfb565b5b50919050565b610d6481610af0565b82525050565b6000606082019050610d7f6000830186610d5b565b610d8c6020830185610bda565b610d996040830184610bda565b949350505050565b6000602082019050610db66000830184610d5b565b92915050565b7f4e487b7100000000000000000000000000000000000000000000000000000000600052601160045260246000fd5b6000610df682610b2e565b9150610e0183610b2e565b9250828201905080821115610e1957610e18610dbc565b5b9291505056fea2646970667358221220dff45ab8f354989aec98bae27201ef5e789afe48944b9e18179ebc767698371964736f6c634300081b0033",
  "linkReferences": {},
  "deployedLinkReferences": {}
}