{
  "_format": "hh-sol-artifact-1",
  "contractName": "PoolFactory",
  "sourceName": "contracts/PoolFactory.sol",
  "abi": [
    {
      "anonymous": false,
      "inputs": [
        {
          "indexed": true,
          "internalType": "uint256",
          "name": "id",
          "type": "uint256"
        },
        {
          "indexed": true,
          "internalType": "address",
          "name": "token0",
          "type": "address"
        },
        {
          "indexed": true,
          "internalType": "address",
          "name": "token1",
          "type": "address"
        },
        {
          "indexed": false,
          "internalType": "uint8",
          "name": "fee",
          "type": "uint8"
        },
        {
          "indexed": false,
          "internalType": "address",
          "name": "poolAddress",
          "type": "address"
        }
      ],
      "name": "PoolCreated",
      "type": "event"
    },
    {
      "inputs": [
        {
          "internalType": "address",
          "name": "token0",
          "type": "address"
        },
        {
          "internalType": "address",
          "name": "token1",
          "type": "address"
        },
        {
          "internalType": "uint8",
          "name": "fee",
          "type": "uint8"
        }
      ],
      "name": "createPool",
      "outputs": [],
      "stateMutability": "nonpayable",
      "type": "function"
    },
    {
      "inputs": [],
      "name": "getPoolDetails",
      "outputs": [
        {
          "components": [
            {
              "internalType": "uint256",
              "name": "id",
              "type": "uint256"
            },
            {
              "internalType": "address",
              "name": "token0",
              "type": "address"
            },
            {
              "internalType": "address",
              "name": "token1",
              "type": "address"
            },
            {
              "internalType": "uint256",
              "name": "reserve0",
              "type": "uint256"
            },
            {
              "internalType": "uint256",
              "name": "reserve1",
              "type": "uint256"
            },
            {
              "internalType": "uint256",
              "name": "totalSupply",
              "type": "uint256"
            },
            {
              "internalType": "address",
              "name": "liquidityToken",
              "type": "address"
            },
            {
              "internalType": "uint8",
              "name": "fee",
              "type": "uint8"
            }
          ],
          "internalType": "struct PoolFactory.PoolData[]",
          "name": "",
          "type": "tuple[]"
        }
      ],
      "stateMutability": "view",
      "type": "function"
    }
  ],
  "bytecode": "0x60806040526000600155348015601457600080fd5b506136cb806100246000396000f3fe608060405234801561001057600080fd5b50600436106100365760003560e01c8063aca34c111461003b578063fcff55aa14610059575b600080fd5b610043610075565b6040516100509190610ccd565b60405180910390f35b610073600480360381019061006e9190610d4c565b6104bd565b005b60606000808054905067ffffffffffffffff81111561009757610096610d9f565b5b6040519080825280602002602001820160405280156100d057816020015b6100bd6109d4565b8152602001906001900390816100b55790505b50905060005b6000805490508110156104b55760008082815481106100f8576100f7610dce565b5b906000526020600020906003020160026003811061011957610118610dce565b5b0160009054906101000a900473ffffffffffffffffffffffffffffffffffffffff16905060008190506000808273ffffffffffffffffffffffffffffffffffffffff16630902f1ac6040518163ffffffff1660e01b81526004016040805180830381865afa15801561018f573d6000803e3d6000fd5b505050506040513d601f19601f820116820180604052508101906101b39190610e29565b91509150604051806101000160405280868152602001600087815481106101dd576101dc610dce565b5b90600052602060002090600302016000600381106101fe576101fd610dce565b5b0160009054906101000a900473ffffffffffffffffffffffffffffffffffffffff1673ffffffffffffffffffffffffffffffffffffffff1681526020016000878154811061024f5761024e610dce565b5b90600052602060002090600302016001600381106102705761026f610dce565b5b0160009054906101000a900473ffffffffffffffffffffffffffffffffffffffff1673ffffffffffffffffffffffffffffffffffffffff1681526020018381526020018281526020018473ffffffffffffffffffffffffffffffffffffffff166318160ddd6040518163ffffffff1660e01b8152600401602060405180830381865afa158015610304573d6000803e3d6000fd5b505050506040513d601f19601f820116820180604052508101906103289190610e69565b81526020018573ffffffffffffffffffffffffffffffffffffffff168152602001600260008089815481106103605761035f610dce565b5b906000526020600020906003020160006003811061038157610380610dce565b5b0160009054906101000a900473ffffffffffffffffffffffffffffffffffffffff1673ffffffffffffffffffffffffffffffffffffffff1673ffffffffffffffffffffffffffffffffffffffff16815260200190815260200160002060008089815481106103f2576103f1610dce565b5b906000526020600020906003020160016003811061041357610412610dce565b5b0160009054906101000a900473ffffffffffffffffffffffffffffffffffffffff1673ffffffffffffffffffffffffffffffffffffffff1673ffffffffffffffffffffffffffffffffffffffff16815260200190815260200160002060000160149054906101000a900460ff1660ff1681525086868151811061049957610498610dce565b5b60200260200101819052505050505080806001019150506100d6565b508091505090565b60648160ff161115610504576040517f08c379a00000000000000000000000000000000000000000000000000000000081526004016104fb90610ef3565b60405180910390fd5b8173ffffffffffffffffffffffffffffffffffffffff168373ffffffffffffffffffffffffffffffffffffffff1603610572576040517f08c379a000000000000000000000000000000000000000000000000000000000815260040161056990610f5f565b60405180910390fd5b600073ffffffffffffffffffffffffffffffffffffffff16600260008573ffffffffffffffffffffffffffffffffffffffff1673ffffffffffffffffffffffffffffffffffffffff16815260200190815260200160002060008473ffffffffffffffffffffffffffffffffffffffff1673ffffffffffffffffffffffffffffffffffffffff16815260200190815260200160002060000160009054906101000a900473ffffffffffffffffffffffffffffffffffffffff1673ffffffffffffffffffffffffffffffffffffffff1614806106dd57508060ff16600260008573ffffffffffffffffffffffffffffffffffffffff1673ffffffffffffffffffffffffffffffffffffffff16815260200190815260200160002060008473ffffffffffffffffffffffffffffffffffffffff1673ffffffffffffffffffffffffffffffffffffffff16815260200190815260200160002060000160149054906101000a900460ff1660ff16145b61071c576040517f08c379a000000000000000000000000000000000000000000000000000000000815260040161071390610fcb565b60405180910390fd5b600083838360405161072d90610a5e565b61073993929190611009565b604051809103906000f080158015610755573d6000803e3d6000fd5b509050600081905060405180604001604052808273ffffffffffffffffffffffffffffffffffffffff1681526020018460ff16815250600260008773ffffffffffffffffffffffffffffffffffffffff1673ffffffffffffffffffffffffffffffffffffffff16815260200190815260200160002060008673ffffffffffffffffffffffffffffffffffffffff1673ffffffffffffffffffffffffffffffffffffffff16815260200190815260200160002060008201518160000160006101000a81548173ffffffffffffffffffffffffffffffffffffffff021916908373ffffffffffffffffffffffffffffffffffffffff16021790555060208201518160000160146101000a81548160ff021916908360ff160217905550905050600060405180606001604052808773ffffffffffffffffffffffffffffffffffffffff1673ffffffffffffffffffffffffffffffffffffffff1681526020018673ffffffffffffffffffffffffffffffffffffffff1673ffffffffffffffffffffffffffffffffffffffff1681526020018373ffffffffffffffffffffffffffffffffffffffff1673ffffffffffffffffffffffffffffffffffffffff16815250908060018154018082558091505060019003906000526020600020906003020160009091909190915090600361094a929190610a6b565b508373ffffffffffffffffffffffffffffffffffffffff168573ffffffffffffffffffffffffffffffffffffffff166001547f29f7c7a310a27e49669286207bb9c1d26582d9e39c7ab04376d9581145bf07b286856040516109ad929190611040565b60405180910390a4600160008154809291906109c890611098565b91905055505050505050565b60405180610100016040528060008152602001600073ffffffffffffffffffffffffffffffffffffffff168152602001600073ffffffffffffffffffffffffffffffffffffffff168152602001600081526020016000815260200160008152602001600073ffffffffffffffffffffffffffffffffffffffff168152602001600060ff1681525090565b6125b5806110e183390190565b8260038101928215610ad7579160200282015b82811115610ad65782518260006101000a81548173ffffffffffffffffffffffffffffffffffffffff021916908373ffffffffffffffffffffffffffffffffffffffff16021790555091602001919060010190610a7e565b5b509050610ae49190610ae8565b5090565b5b80821115610b01576000816000905550600101610ae9565b5090565b600081519050919050565b600082825260208201905092915050565b6000819050602082019050919050565b6000819050919050565b610b4481610b31565b82525050565b600073ffffffffffffffffffffffffffffffffffffffff82169050919050565b6000610b7582610b4a565b9050919050565b610b8581610b6a565b82525050565b600060ff82169050919050565b610ba181610b8b565b82525050565b61010082016000820151610bbe6000850182610b3b565b506020820151610bd16020850182610b7c565b506040820151610be46040850182610b7c565b506060820151610bf76060850182610b3b565b506080820151610c0a6080850182610b3b565b5060a0820151610c1d60a0850182610b3b565b5060c0820151610c3060c0850182610b7c565b5060e0820151610c4360e0850182610b98565b50505050565b6000610c558383610ba7565b6101008301905092915050565b6000602082019050919050565b6000610c7a82610b05565b610c848185610b10565b9350610c8f83610b21565b8060005b83811015610cc0578151610ca78882610c49565b9750610cb283610c62565b925050600181019050610c93565b5085935050505092915050565b60006020820190508181036000830152610ce78184610c6f565b905092915050565b600080fd5b610cfd81610b6a565b8114610d0857600080fd5b50565b600081359050610d1a81610cf4565b92915050565b610d2981610b8b565b8114610d3457600080fd5b50565b600081359050610d4681610d20565b92915050565b600080600060608486031215610d6557610d64610cef565b5b6000610d7386828701610d0b565b9350506020610d8486828701610d0b565b9250506040610d9586828701610d37565b9150509250925092565b7f4e487b7100000000000000000000000000000000000000000000000000000000600052604160045260246000fd5b7f4e487b7100000000000000000000000000000000000000000000000000000000600052603260045260246000fd5b610e0681610b31565b8114610e1157600080fd5b50565b600081519050610e2381610dfd565b92915050565b60008060408385031215610e4057610e3f610cef565b5b6000610e4e85828601610e14565b9250506020610e5f85828601610e14565b9150509250929050565b600060208284031215610e7f57610e7e610cef565b5b6000610e8d84828501610e14565b91505092915050565b600082825260208201905092915050565b7f4665652063616e6e6f74206265206d6f7265207468616e203125000000000000600082015250565b6000610edd601a83610e96565b9150610ee882610ea7565b602082019050919050565b60006020820190508181036000830152610f0c81610ed0565b9050919050565b7f43616e6e6f742074726164652073616d6520746f6b656e000000000000000000600082015250565b6000610f49601783610e96565b9150610f5482610f13565b602082019050919050565b60006020820190508181036000830152610f7881610f3c565b9050919050565b7f506f6f6c466163746f72795f5f50616972416c72656164794578697374730000600082015250565b6000610fb5601e83610e96565b9150610fc082610f7f565b602082019050919050565b60006020820190508181036000830152610fe481610fa8565b9050919050565b610ff481610b6a565b82525050565b61100381610b8b565b82525050565b600060608201905061101e6000830186610feb565b61102b6020830185610feb565b6110386040830184610ffa565b949350505050565b60006040820190506110556000830185610ffa565b6110626020830184610feb565b9392505050565b7f4e487b7100000000000000000000000000000000000000000000000000000000600052601160045260246000fd5b60006110a382610b31565b91507fffffffffffffffffffffffffffffffffffffffffffffffffffffffffffffffff82036110d5576110d4611069565b5b60018201905091905056fe60e060405234801561001057600080fd5b506040516125b53803806125b5833981810160405281019061003291906101e6565b6040518060400160405280600e81526020017f4c6971756964697479546f6b656e0000000000000000000000000000000000008152506040518060400160405280600981526020017f4c696e65615f5553440000000000000000000000000000000000000000000000815250818181600390816100af9190610489565b5080600490816100bf9190610489565b505050505060016005819055508273ffffffffffffffffffffffffffffffffffffffff1660808173ffffffffffffffffffffffffffffffffffffffff16815250508173ffffffffffffffffffffffffffffffffffffffff1660a08173ffffffffffffffffffffffffffffffffffffffff16815250508060ff1660c08160ff168152505050505061055b565b600080fd5b600073ffffffffffffffffffffffffffffffffffffffff82169050919050565b600061017a8261014f565b9050919050565b61018a8161016f565b811461019557600080fd5b50565b6000815190506101a781610181565b92915050565b600060ff82169050919050565b6101c3816101ad565b81146101ce57600080fd5b50565b6000815190506101e0816101ba565b92915050565b6000806000606084860312156101ff576101fe61014a565b5b600061020d86828701610198565b935050602061021e86828701610198565b925050604061022f868287016101d1565b9150509250925092565b600081519050919050565b7f4e487b7100000000000000000000000000000000000000000000000000000000600052604160045260246000fd5b7f4e487b7100000000000000000000000000000000000000000000000000000000600052602260045260246000fd5b600060028204905060018216806102ba57607f821691505b6020821081036102cd576102cc610273565b5b50919050565b60008190508160005260206000209050919050565b60006020601f8301049050919050565b600082821b905092915050565b6000600883026103357fffffffffffffffffffffffffffffffffffffffffffffffffffffffffffffffff826102f8565b61033f86836102f8565b95508019841693508086168417925050509392505050565b6000819050919050565b6000819050919050565b600061038661038161037c84610357565b610361565b610357565b9050919050565b6000819050919050565b6103a08361036b565b6103b46103ac8261038d565b848454610305565b825550505050565b600090565b6103c96103bc565b6103d4818484610397565b505050565b5b818110156103f8576103ed6000826103c1565b6001810190506103da565b5050565b601f82111561043d5761040e816102d3565b610417846102e8565b81016020851015610426578190505b61043a610432856102e8565b8301826103d9565b50505b505050565b600082821c905092915050565b600061046060001984600802610442565b1980831691505092915050565b6000610479838361044f565b9150826002028217905092915050565b61049282610239565b67ffffffffffffffff8111156104ab576104aa610244565b5b6104b582546102a2565b6104c08282856103fc565b600060209050601f8311600181146104f357600084156104e1578287015190505b6104eb858261046d565b865550610553565b601f198416610501866102d3565b60005b8281101561052957848901518255600182019150602085019450602081019050610504565b868310156105465784890151610542601f89168261044f565b8355505b6001600288020188555050505b505050505050565b60805160a05160c051611fe56105d060003960008181610c7f0152610d0f0152600081816106a00152818161095201528181610ae201528181610b660152610d7c01526000818161067b0152818161092d01528181610ac101528181610b1101528181610bf70152610d570152611fe56000f3fe608060405234801561001057600080fd5b506004361061010b5760003560e01c806395d89b41116100a2578063aa6ca80811610071578063aa6ca808146102d0578063ca706bcf146102ef578063ced72f8714610322578063d004f0f714610340578063dd62ed3e1461035c5761010b565b806395d89b411461024a5780639cd441da14610268578063a9059cbb14610284578063aa3ea406146102b45761010b565b806323b872dd116100de57806323b872dd1461019b57806324be6375146101cb578063313ce567146101fc57806370a082311461021a5761010b565b806306fdde03146101105780630902f1ac1461012e578063095ea7b31461014d57806318160ddd1461017d575b600080fd5b61011861038c565b604051610125919061181e565b60405180910390f35b61013661041e565b604051610144929190611859565b60405180910390f35b61016760048036038101906101629190611911565b61042f565b604051610174919061196c565b60405180910390f35b610185610452565b6040516101929190611987565b60405180910390f35b6101b560048036038101906101b091906119a2565b61045c565b6040516101c2919061196c565b60405180910390f35b6101e560048036038101906101e091906119f5565b61048b565b6040516101f3929190611859565b60405180910390f35b61020461051a565b6040516102119190611a3e565b60405180910390f35b610234600480360381019061022f9190611a59565b610523565b6040516102419190611987565b60405180910390f35b61025261056b565b60405161025f919061181e565b60405180910390f35b610282600480360381019061027d9190611a86565b6105fd565b005b61029e60048036038101906102999190611911565b6108c0565b6040516102ab919061196c565b60405180910390f35b6102ce60048036038101906102c991906119f5565b6108e3565b005b6102d8610abc565b6040516102e6929190611ad5565b60405180910390f35b61030960048036038101906103049190611911565b610b09565b6040516103199493929190611afe565b60405180910390f35b61032a610d0b565b6040516103379190611a3e565b60405180910390f35b61035a60048036038101906103559190611911565b610d33565b005b61037660048036038101906103719190611b43565b610f89565b6040516103839190611987565b60405180910390f35b60606003805461039b90611bb2565b80601f01602080910402602001604051908101604052809291908181526020018280546103c790611bb2565b80156104145780601f106103e957610100808354040283529160200191610414565b820191906000526020600020905b8154815290600101906020018083116103f757829003601f168201915b5050505050905090565b600080600654600754915091509091565b60008061043a611010565b9050610447818585611018565b600191505092915050565b6000600254905090565b600080610467611010565b905061047485828561102a565b61047f8585856110be565b60019150509392505050565b600080600083116104d1576040517f08c379a00000000000000000000000000000000000000000000000000000000081526004016104c890611c2f565b60405180910390fd5b6104d9610452565b836006546104e79190611c7e565b6104f19190611cef565b91506104fb610452565b836007546105099190611c7e565b6105139190611cef565b9050915091565b60006012905090565b60008060008373ffffffffffffffffffffffffffffffffffffffff1673ffffffffffffffffffffffffffffffffffffffff168152602001908152602001600020549050919050565b60606004805461057a90611bb2565b80601f01602080910402602001604051908101604052809291908181526020018280546105a690611bb2565b80156105f35780601f106105c8576101008083540402835291602001916105f3565b820191906000526020600020905b8154815290600101906020018083116105d657829003601f168201915b5050505050905090565b6106056111b2565b600060065490506000600754905060008211806106225750600081115b156106775782846106339190611cef565b818361063f9190611cef565b14610676576040517f17a401a800000000000000000000000000000000000000000000000000000000815260040160405180910390fd5b5b60007f0000000000000000000000000000000000000000000000000000000000000000905060007f000000000000000000000000000000000000000000000000000000000000000090508173ffffffffffffffffffffffffffffffffffffffff166323b872dd3330896040518463ffffffff1660e01b81526004016106fe93929190611d20565b6020604051808303816000875af115801561071d573d6000803e3d6000fd5b505050506040513d601f19601f820116820180604052508101906107419190611d83565b508073ffffffffffffffffffffffffffffffffffffffff166323b872dd3330886040518463ffffffff1660e01b815260040161077f93929190611d20565b6020604051808303816000875af115801561079e573d6000803e3d6000fd5b505050506040513d601f19601f820116820180604052508101906107c29190611d83565b5060006107cd610452565b90506000808211156107f7578582896107e69190611c7e565b6107f09190611cef565b905061080e565b61080b87896108069190611c7e565b6111f8565b90505b60008103610848576040517f4aed4e4b00000000000000000000000000000000000000000000000000000000815260040160405180910390fd5b6108523382611272565b61087288876108619190611db0565b888761086d9190611db0565b6112f4565b8688827f86c3929a230b573aa47cd83759aed11b800d147abc23e246dfeb5ebbd7a110e387876040516108a6929190611ad5565b60405180910390a45050505050506108bc611306565b5050565b6000806108cb611010565b90506108d88185856110be565b600191505092915050565b6108eb6111b2565b6000806108f78361048b565b915091506109053384611310565b610929826006546109169190611de4565b826007546109249190611de4565b6112f4565b60007f0000000000000000000000000000000000000000000000000000000000000000905060007f000000000000000000000000000000000000000000000000000000000000000090508173ffffffffffffffffffffffffffffffffffffffff1663a9059cbb33866040518363ffffffff1660e01b81526004016109ae929190611e18565b6020604051808303816000875af11580156109cd573d6000803e3d6000fd5b505050506040513d601f19601f820116820180604052508101906109f19190611d83565b508073ffffffffffffffffffffffffffffffffffffffff1663a9059cbb33856040518363ffffffff1660e01b8152600401610a2d929190611e18565b6020604051808303816000875af1158015610a4c573d6000803e3d6000fd5b505050506040513d601f19601f82011682018060405250810190610a709190611d83565b508284867f47a132e4e9e9fd057fafaf86c87eac1f1beb455bf20382505e83022d971633798585604051610aa5929190611ad5565b60405180910390a450505050610ab9611306565b50565b6000807f00000000000000000000000000000000000000000000000000000000000000007f0000000000000000000000000000000000000000000000000000000000000000915091509091565b6000806000807f000000000000000000000000000000000000000000000000000000000000000073ffffffffffffffffffffffffffffffffffffffff168673ffffffffffffffffffffffffffffffffffffffff161480610bb457507f000000000000000000000000000000000000000000000000000000000000000073ffffffffffffffffffffffffffffffffffffffff168673ffffffffffffffffffffffffffffffffffffffff16145b610bf3576040517f08c379a0000000000000000000000000000000000000000000000000000000008152600401610bea90611e8d565b60405180910390fd5b60007f000000000000000000000000000000000000000000000000000000000000000073ffffffffffffffffffffffffffffffffffffffff168773ffffffffffffffffffffffffffffffffffffffff1614610c4f576000610c52565b60015b9050600060065490506000600754905060008084610c71578284610c74565b83835b9150915060006127107f000000000000000000000000000000000000000000000000000000000000000060ff16612710610cae9190611ebb565b61ffff168c610cbd9190611c7e565b610cc79190611cef565b905060008184610cd79190611db0565b8383610ce39190611c7e565b610ced9190611cef565b9050808484899a509a509a509a505050505050505092959194509250565b60007f0000000000000000000000000000000000000000000000000000000000000000905090565b610d3b6111b2565b600080600080610d4b8686610b09565b935093509350935060007f0000000000000000000000000000000000000000000000000000000000000000905060007f0000000000000000000000000000000000000000000000000000000000000000905060008060008086610dc7578a89610db49190611de4565b8a89610dc09190611db0565b8688610de2565b8a89610dd39190611db0565b8a89610ddf9190611de4565b87875b935093509350935060008273ffffffffffffffffffffffffffffffffffffffff166323b872dd33308f6040518463ffffffff1660e01b8152600401610e2993929190611d20565b6020604051808303816000875af1158015610e48573d6000803e3d6000fd5b505050506040513d601f19601f82011682018060405250810190610e6c9190611d83565b905080610eae576040517f08c379a0000000000000000000000000000000000000000000000000000000008152600401610ea590611f3d565b60405180910390fd5b610eb885856112f4565b8173ffffffffffffffffffffffffffffffffffffffff1663a9059cbb338d6040518363ffffffff1660e01b8152600401610ef3929190611e18565b6020604051808303816000875af1158015610f12573d6000803e3d6000fd5b505050506040513d601f19601f82011682018060405250810190610f369190611d83565b508a8c7fdb587d878116df0bdd4fe154699aa2c5f439da001cc811dfd05d9f589fc5a8ee8585604051610f6a929190611ad5565b60405180910390a35050505050505050505050610f85611306565b5050565b6000600160008473ffffffffffffffffffffffffffffffffffffffff1673ffffffffffffffffffffffffffffffffffffffff16815260200190815260200160002060008373ffffffffffffffffffffffffffffffffffffffff1673ffffffffffffffffffffffffffffffffffffffff16815260200190815260200160002054905092915050565b600033905090565b6110258383836001611392565b505050565b60006110368484610f89565b90507fffffffffffffffffffffffffffffffffffffffffffffffffffffffffffffffff81146110b857818110156110a8578281836040517ffb8f41b200000000000000000000000000000000000000000000000000000000815260040161109f93929190611f5d565b60405180910390fd5b6110b784848484036000611392565b5b50505050565b600073ffffffffffffffffffffffffffffffffffffffff168373ffffffffffffffffffffffffffffffffffffffff16036111305760006040517f96c6fd1e0000000000000000000000000000000000000000000000000000000081526004016111279190611f94565b60405180910390fd5b600073ffffffffffffffffffffffffffffffffffffffff168273ffffffffffffffffffffffffffffffffffffffff16036111a25760006040517fec442f050000000000000000000000000000000000000000000000000000000081526004016111999190611f94565b60405180910390fd5b6111ad838383611569565b505050565b6002600554036111ee576040517f3ee5aeb500000000000000000000000000000000000000000000000000000000815260040160405180910390fd5b6002600581905550565b6000600382111561125f57819050600060016002846112179190611cef565b6112219190611db0565b90505b8181101561125957809150600281828561123e9190611cef565b6112489190611db0565b6112529190611cef565b9050611224565b5061126d565b6000821461126c57600190505b5b919050565b600073ffffffffffffffffffffffffffffffffffffffff168273ffffffffffffffffffffffffffffffffffffffff16036112e45760006040517fec442f050000000000000000000000000000000000000000000000000000000081526004016112db9190611f94565b60405180910390fd5b6112f060008383611569565b5050565b81600681905550806007819055505050565b6001600581905550565b600073ffffffffffffffffffffffffffffffffffffffff168273ffffffffffffffffffffffffffffffffffffffff16036113825760006040517f96c6fd1e0000000000000000000000000000000000000000000000000000000081526004016113799190611f94565b60405180910390fd5b61138e82600083611569565b5050565b600073ffffffffffffffffffffffffffffffffffffffff168473ffffffffffffffffffffffffffffffffffffffff16036114045760006040517fe602df050000000000000000000000000000000000000000000000000000000081526004016113fb9190611f94565b60405180910390fd5b600073ffffffffffffffffffffffffffffffffffffffff168373ffffffffffffffffffffffffffffffffffffffff16036114765760006040517f94280d6200000000000000000000000000000000000000000000000000000000815260040161146d9190611f94565b60405180910390fd5b81600160008673ffffffffffffffffffffffffffffffffffffffff1673ffffffffffffffffffffffffffffffffffffffff16815260200190815260200160002060008573ffffffffffffffffffffffffffffffffffffffff1673ffffffffffffffffffffffffffffffffffffffff168152602001908152602001600020819055508015611563578273ffffffffffffffffffffffffffffffffffffffff168473ffffffffffffffffffffffffffffffffffffffff167f8c5be1e5ebec7d5bd14f71427d1e84f3dd0314c0f7b2291e5b200ac8c7c3b9258460405161155a9190611987565b60405180910390a35b50505050565b600073ffffffffffffffffffffffffffffffffffffffff168373ffffffffffffffffffffffffffffffffffffffff16036115bb5780600260008282546115af9190611db0565b9250508190555061168e565b60008060008573ffffffffffffffffffffffffffffffffffffffff1673ffffffffffffffffffffffffffffffffffffffff16815260200190815260200160002054905081811015611647578381836040517fe450d38c00000000000000000000000000000000000000000000000000000000815260040161163e93929190611f5d565b60405180910390fd5b8181036000808673ffffffffffffffffffffffffffffffffffffffff1673ffffffffffffffffffffffffffffffffffffffff16815260200190815260200160002081905550505b600073ffffffffffffffffffffffffffffffffffffffff168273ffffffffffffffffffffffffffffffffffffffff16036116d75780600260008282540392505081905550611724565b806000808473ffffffffffffffffffffffffffffffffffffffff1673ffffffffffffffffffffffffffffffffffffffff168152602001908152602001600020600082825401925050819055505b8173ffffffffffffffffffffffffffffffffffffffff168373ffffffffffffffffffffffffffffffffffffffff167fddf252ad1be2c89b69c2b068fc378daa952ba7f163c4a11628f55a4df523b3ef836040516117819190611987565b60405180910390a3505050565b600081519050919050565b600082825260208201905092915050565b60005b838110156117c85780820151818401526020810190506117ad565b60008484015250505050565b6000601f19601f8301169050919050565b60006117f08261178e565b6117fa8185611799565b935061180a8185602086016117aa565b611813816117d4565b840191505092915050565b6000602082019050818103600083015261183881846117e5565b905092915050565b6000819050919050565b61185381611840565b82525050565b600060408201905061186e600083018561184a565b61187b602083018461184a565b9392505050565b600080fd5b600073ffffffffffffffffffffffffffffffffffffffff82169050919050565b60006118b282611887565b9050919050565b6118c2816118a7565b81146118cd57600080fd5b50565b6000813590506118df816118b9565b92915050565b6118ee81611840565b81146118f957600080fd5b50565b60008135905061190b816118e5565b92915050565b6000806040838503121561192857611927611882565b5b6000611936858286016118d0565b9250506020611947858286016118fc565b9150509250929050565b60008115159050919050565b61196681611951565b82525050565b6000602082019050611981600083018461195d565b92915050565b600060208201905061199c600083018461184a565b92915050565b6000806000606084860312156119bb576119ba611882565b5b60006119c9868287016118d0565b93505060206119da868287016118d0565b92505060406119eb868287016118fc565b9150509250925092565b600060208284031215611a0b57611a0a611882565b5b6000611a19848285016118fc565b91505092915050565b600060ff82169050919050565b611a3881611a22565b82525050565b6000602082019050611a536000830184611a2f565b92915050565b600060208284031215611a6f57611a6e611882565b5b6000611a7d848285016118d0565b91505092915050565b60008060408385031215611a9d57611a9c611882565b5b6000611aab858286016118fc565b9250506020611abc858286016118fc565b9150509250929050565b611acf816118a7565b82525050565b6000604082019050611aea6000830185611ac6565b611af76020830184611ac6565b9392505050565b6000608082019050611b13600083018761184a565b611b20602083018661184a565b611b2d604083018561184a565b611b3a606083018461195d565b95945050505050565b60008060408385031215611b5a57611b59611882565b5b6000611b68858286016118d0565b9250506020611b79858286016118d0565b9150509250929050565b7f4e487b7100000000000000000000000000000000000000000000000000000000600052602260045260246000fd5b60006002820490506001821680611bca57607f821691505b602082108103611bdd57611bdc611b83565b5b50919050565b7f6c697175696469747920746f6b656e2069732076616c69640000000000000000600082015250565b6000611c19601883611799565b9150611c2482611be3565b602082019050919050565b60006020820190508181036000830152611c4881611c0c565b9050919050565b7f4e487b7100000000000000000000000000000000000000000000000000000000600052601160045260246000fd5b6000611c8982611840565b9150611c9483611840565b9250828202611ca281611840565b91508282048414831517611cb957611cb8611c4f565b5b5092915050565b7f4e487b7100000000000000000000000000000000000000000000000000000000600052601260045260246000fd5b6000611cfa82611840565b9150611d0583611840565b925082611d1557611d14611cc0565b5b828204905092915050565b6000606082019050611d356000830186611ac6565b611d426020830185611ac6565b611d4f604083018461184a565b949350505050565b611d6081611951565b8114611d6b57600080fd5b50565b600081519050611d7d81611d57565b92915050565b600060208284031215611d9957611d98611882565b5b6000611da784828501611d6e565b91505092915050565b6000611dbb82611840565b9150611dc683611840565b9250828201905080821115611dde57611ddd611c4f565b5b92915050565b6000611def82611840565b9150611dfa83611840565b9250828203905081811115611e1257611e11611c4f565b5b92915050565b6000604082019050611e2d6000830185611ac6565b611e3a602083018461184a565b9392505050565b7f496e76616c696420746f6b656e00000000000000000000000000000000000000600082015250565b6000611e77600d83611799565b9150611e8282611e41565b602082019050919050565b60006020820190508181036000830152611ea681611e6a565b9050919050565b600061ffff82169050919050565b6000611ec682611ead565b9150611ed183611ead565b9250828203905061ffff811115611eeb57611eea611c4f565b5b92915050565b7f53776170206661696c6564000000000000000000000000000000000000000000600082015250565b6000611f27600b83611799565b9150611f3282611ef1565b602082019050919050565b60006020820190508181036000830152611f5681611f1a565b9050919050565b6000606082019050611f726000830186611ac6565b611f7f602083018561184a565b611f8c604083018461184a565b949350505050565b6000602082019050611fa96000830184611ac6565b9291505056fea2646970667358221220d50225dc0f7b0cfb20d1ca4e265b14247476639d3e444b82d3a632c72bab36a264736f6c634300081b0033a2646970667358221220677fc2262a653cfed77c0800ea02a3796715b318030f8a38786f6271b3f4067964736f6c634300081b0033",
  "linkReferences": {},
  "deployedLinkReferences": {}
}