{
  "_format": "hh-sol-artifact-1",
  "contractName": "Pool",
  "sourceName": "contracts/Pool.sol",
  "abi": [
    {
      "inputs": [
        {
          "internalType": "address",
          "name": "token0",
          "type": "address"
        },
        {
          "internalType": "address",
          "name": "token1",
          "type": "address"
        },
        {
          "internalType": "uint8",
          "name": "fee",
          "type": "uint8"
        }
      ],
      "stateMutability": "nonpayable",
      "type": "constructor"
    },
    {
      "inputs": [],
      "name": "Pool__InvalidTokenRatio",
      "type": "error"
    },
    {
      "inputs": [],
      "name": "ReentrancyGuardReentrantCall",
      "type": "error"
    },
    {
      "anonymous": false,
      "inputs": [
        {
          "indexed": true,
          "internalType": "uint256",
          "name": "liquidityToken",
          "type": "uint256"
        },
        {
          "indexed": false,
          "internalType": "address",
          "name": "token0",
          "type": "address"
        },
        {
          "indexed": true,
          "internalType": "uint256",
          "name": "amount0",
          "type": "uint256"
        },
        {
          "indexed": false,
          "internalType": "address",
          "name": "token1",
          "type": "address"
        },
        {
          "indexed": true,
          "internalType": "uint256",
          "name": "amount1",
          "type": "uint256"
        }
      ],
      "name": "AddedLiquidity",
      "type": "event"
    },
    {
      "anonymous": false,
      "inputs": [
        {
          "indexed": true,
          "internalType": "uint256",
          "name": "liquidityToken",
          "type": "uint256"
        },
        {
          "indexed": false,
          "internalType": "address",
          "name": "token0",
          "type": "address"
        },
        {
          "indexed": true,
          "internalType": "uint256",
          "name": "amount0",
          "type": "uint256"
        },
        {
          "indexed": false,
          "internalType": "address",
          "name": "token1",
          "type": "address"
        },
        {
          "indexed": true,
          "internalType": "uint256",
          "name": "amount1",
          "type": "uint256"
        }
      ],
      "name": "RemovedLiquidity",
      "type": "event"
    },
    {
      "anonymous": false,
      "inputs": [
        {
          "indexed": false,
          "internalType": "address",
          "name": "tokenIn",
          "type": "address"
        },
        {
          "indexed": true,
          "internalType": "uint256",
          "name": "amountIn",
          "type": "uint256"
        },
        {
          "indexed": false,
          "internalType": "address",
          "name": "tokenOut",
          "type": "address"
        },
        {
          "indexed": true,
          "internalType": "uint256",
          "name": "amountOut",
          "type": "uint256"
        }
      ],
      "name": "Swapped",
      "type": "event"
    },
    {
      "anonymous": false,
      "inputs": [
        {
          "indexed": false,
          "internalType": "address",
          "name": "from",
          "type": "address"
        },
        {
          "indexed": false,
          "internalType": "address",
          "name": "to",
          "type": "address"
        },
        {
          "indexed": false,
          "internalType": "uint256",
          "name": "value",
          "type": "uint256"
        }
      ],
      "name": "TransferAttempt",
      "type": "event"
    },
    {
      "inputs": [
        {
          "internalType": "uint256",
          "name": "amount0",
          "type": "uint256"
        },
        {
          "internalType": "uint256",
          "name": "amount1",
          "type": "uint256"
        }
      ],
      "name": "addLiquidity",
      "outputs": [],
      "stateMutability": "payable",
      "type": "function"
    },
    {
      "inputs": [
        {
          "internalType": "address",
          "name": "_tokenIn",
          "type": "address"
        },
        {
          "internalType": "uint256",
          "name": "amountIn",
          "type": "uint256"
        }
      ],
      "name": "getAmountOut",
      "outputs": [
        {
          "internalType": "uint256",
          "name": "",
          "type": "uint256"
        },
        {
          "internalType": "uint256",
          "name": "",
          "type": "uint256"
        },
        {
          "internalType": "uint256",
          "name": "",
          "type": "uint256"
        },
        {
          "internalType": "bool",
          "name": "",
          "type": "bool"
        }
      ],
      "stateMutability": "view",
      "type": "function"
    },
    {
      "inputs": [
        {
          "internalType": "uint256",
          "name": "liquidityToken",
          "type": "uint256"
        }
      ],
      "name": "getAmountsOnRemovingLiquidity",
      "outputs": [
        {
          "internalType": "uint256",
          "name": "amount0",
          "type": "uint256"
        },
        {
          "internalType": "uint256",
          "name": "amount1",
          "type": "uint256"
        }
      ],
      "stateMutability": "view",
      "type": "function"
    },
    {
      "inputs": [],
      "name": "getFee",
      "outputs": [
        {
          "internalType": "uint8",
          "name": "",
          "type": "uint8"
        }
      ],
      "stateMutability": "view",
      "type": "function"
    },
    {
      "inputs": [],
      "name": "getReserves",
      "outputs": [
        {
          "internalType": "uint256",
          "name": "",
          "type": "uint256"
        },
        {
          "internalType": "uint256",
          "name": "",
          "type": "uint256"
        }
      ],
      "stateMutability": "view",
      "type": "function"
    },
    {
      "inputs": [],
      "name": "getTokens",
      "outputs": [
        {
          "internalType": "address",
          "name": "",
          "type": "address"
        },
        {
          "internalType": "address",
          "name": "",
          "type": "address"
        }
      ],
      "stateMutability": "view",
      "type": "function"
    },
    {
      "inputs": [
        {
          "internalType": "uint256",
          "name": "liquidityToken",
          "type": "uint256"
        }
      ],
      "name": "removedLiquidity",
      "outputs": [],
      "stateMutability": "nonpayable",
      "type": "function"
    },
    {
      "inputs": [
        {
          "internalType": "address",
          "name": "_tokenIn",
          "type": "address"
        },
        {
          "internalType": "uint256",
          "name": "amountIn",
          "type": "uint256"
        }
      ],
      "name": "swap",
      "outputs": [],
      "stateMutability": "nonpayable",
      "type": "function"
    }
  ],
  "bytecode": "0x61010060405234801561001157600080fd5b506040516133c73803806133c7833981810160405281019061003391906101cb565b60016000819055508273ffffffffffffffffffffffffffffffffffffffff1660808173ffffffffffffffffffffffffffffffffffffffff16815250508173ffffffffffffffffffffffffffffffffffffffff1660a08173ffffffffffffffffffffffffffffffffffffffff16815250508060ff1660e08160ff168152505082826040516100bf90610122565b6100ca92919061022d565b604051809103906000f0801580156100e6573d6000803e3d6000fd5b5073ffffffffffffffffffffffffffffffffffffffff1660c08173ffffffffffffffffffffffffffffffffffffffff1681525050505050610256565b611b518061187683390190565b600080fd5b600073ffffffffffffffffffffffffffffffffffffffff82169050919050565b600061015f82610134565b9050919050565b61016f81610154565b811461017a57600080fd5b50565b60008151905061018c81610166565b92915050565b600060ff82169050919050565b6101a881610192565b81146101b357600080fd5b50565b6000815190506101c58161019f565b92915050565b6000806000606084860312156101e4576101e361012f565b5b60006101f28682870161017d565b93505060206102038682870161017d565b9250506040610214868287016101b6565b9150509250925092565b61022781610154565b82525050565b6000604082019050610242600083018561021e565b61024f602083018461021e565b9392505050565b60805160a05160c05160e0516115856102f160003960008181610b4f0152610bdf015260008181610248015281816102f10152818161056701528181610637015261074a01526000818161044001528181610822015281816109b201528181610a360152610c4c01526000818161041b015281816107fd01528181610991015281816109e101528181610ac70152610c2701526115856000f3fe60806040526004361061007b5760003560e01c8063aa6ca8081161004e578063aa6ca8081461012f578063ca706bcf1461015b578063ced72f871461019b578063d004f0f7146101c65761007b565b80630902f1ac1461008057806324be6375146100ac5780639cd441da146100ea578063aa3ea40614610106575b600080fd5b34801561008c57600080fd5b506100956101ef565b6040516100a3929190610f4e565b60405180910390f35b3480156100b857600080fd5b506100d360048036038101906100ce9190610fa8565b610200565b6040516100e1929190610f4e565b60405180910390f35b61010460048036038101906100ff9190610fd5565b61039d565b005b34801561011257600080fd5b5061012d60048036038101906101289190610fa8565b610730565b005b34801561013b57600080fd5b5061014461098c565b604051610152929190611056565b60405180910390f35b34801561016757600080fd5b50610182600480360381019061017d91906110ab565b6109d9565b6040516101929493929190611106565b60405180910390f35b3480156101a757600080fd5b506101b0610bdb565b6040516101bd9190611167565b60405180910390f35b3480156101d257600080fd5b506101ed60048036038101906101e891906110ab565b610c03565b005b600080600154600254915091509091565b60008060008311610246576040517f08c379a000000000000000000000000000000000000000000000000000000000815260040161023d906111df565b60405180910390fd5b7f000000000000000000000000000000000000000000000000000000000000000073ffffffffffffffffffffffffffffffffffffffff166318160ddd6040518163ffffffff1660e01b8152600401602060405180830381865afa1580156102b1573d6000803e3d6000fd5b505050506040513d601f19601f820116820180604052508101906102d59190611214565b836001546102e39190611270565b6102ed91906112e1565b91507f000000000000000000000000000000000000000000000000000000000000000073ffffffffffffffffffffffffffffffffffffffff166318160ddd6040518163ffffffff1660e01b8152600401602060405180830381865afa15801561035a573d6000803e3d6000fd5b505050506040513d601f19601f8201168201806040525081019061037e9190611214565b8360025461038c9190611270565b61039691906112e1565b9050915091565b6103a5610e59565b600060015490506000600254905060008211806103c25750600081115b156104175782846103d391906112e1565b81836103df91906112e1565b14610416576040517f17a401a800000000000000000000000000000000000000000000000000000000815260040160405180910390fd5b5b60007f0000000000000000000000000000000000000000000000000000000000000000905060007f000000000000000000000000000000000000000000000000000000000000000090508173ffffffffffffffffffffffffffffffffffffffff166323b872dd3330896040518463ffffffff1660e01b815260040161049e93929190611312565b6020604051808303816000875af11580156104bd573d6000803e3d6000fd5b505050506040513d601f19601f820116820180604052508101906104e19190611375565b508073ffffffffffffffffffffffffffffffffffffffff166323b872dd3330886040518463ffffffff1660e01b815260040161051f93929190611312565b6020604051808303816000875af115801561053e573d6000803e3d6000fd5b505050506040513d601f19601f820116820180604052508101906105629190611375565b5060007f000000000000000000000000000000000000000000000000000000000000000073ffffffffffffffffffffffffffffffffffffffff166318160ddd6040518163ffffffff1660e01b8152600401602060405180830381865afa1580156105d0573d6000803e3d6000fd5b505050506040513d601f19601f820116820180604052508101906105f49190611214565b905060008082111561061e5785828961060d9190611270565b61061791906112e1565b9050610635565b610632878961062d9190611270565b610e9f565b90505b7f000000000000000000000000000000000000000000000000000000000000000073ffffffffffffffffffffffffffffffffffffffff166340c10f1933836040518363ffffffff1660e01b81526004016106909291906113a2565b600060405180830381600087803b1580156106aa57600080fd5b505af11580156106be573d6000803e3d6000fd5b505050506106e288876106d191906113cb565b88876106dd91906113cb565b610f19565b8688827f86c3929a230b573aa47cd83759aed11b800d147abc23e246dfeb5ebbd7a110e38787604051610716929190611056565b60405180910390a450505050505061072c610f2b565b5050565b610738610e59565b60008061074483610200565b915091507f000000000000000000000000000000000000000000000000000000000000000073ffffffffffffffffffffffffffffffffffffffff16639dc29fac33856040518363ffffffff1660e01b81526004016107a39291906113a2565b600060405180830381600087803b1580156107bd57600080fd5b505af11580156107d1573d6000803e3d6000fd5b505050506107f9826001546107e691906113ff565b826002546107f491906113ff565b610f19565b60007f0000000000000000000000000000000000000000000000000000000000000000905060007f000000000000000000000000000000000000000000000000000000000000000090508173ffffffffffffffffffffffffffffffffffffffff1663a9059cbb33866040518363ffffffff1660e01b815260040161087e9291906113a2565b6020604051808303816000875af115801561089d573d6000803e3d6000fd5b505050506040513d601f19601f820116820180604052508101906108c19190611375565b508073ffffffffffffffffffffffffffffffffffffffff1663a9059cbb33856040518363ffffffff1660e01b81526004016108fd9291906113a2565b6020604051808303816000875af115801561091c573d6000803e3d6000fd5b505050506040513d601f19601f820116820180604052508101906109409190611375565b508284867f47a132e4e9e9fd057fafaf86c87eac1f1beb455bf20382505e83022d971633798585604051610975929190611056565b60405180910390a450505050610989610f2b565b50565b6000807f00000000000000000000000000000000000000000000000000000000000000007f0000000000000000000000000000000000000000000000000000000000000000915091509091565b6000806000807f000000000000000000000000000000000000000000000000000000000000000073ffffffffffffffffffffffffffffffffffffffff168673ffffffffffffffffffffffffffffffffffffffff161480610a8457507f000000000000000000000000000000000000000000000000000000000000000073ffffffffffffffffffffffffffffffffffffffff168673ffffffffffffffffffffffffffffffffffffffff16145b610ac3576040517f08c379a0000000000000000000000000000000000000000000000000000000008152600401610aba9061147f565b60405180910390fd5b60007f000000000000000000000000000000000000000000000000000000000000000073ffffffffffffffffffffffffffffffffffffffff168773ffffffffffffffffffffffffffffffffffffffff1614610b1f576000610b22565b60015b9050600060015490506000600254905060008084610b41578284610b44565b83835b9150915060006127107f000000000000000000000000000000000000000000000000000000000000000060ff16612710610b7e91906114ad565b61ffff168c610b8d9190611270565b610b9791906112e1565b905060008184610ba791906113cb565b8383610bb39190611270565b610bbd91906112e1565b9050808484899a509a509a509a505050505050505092959194509250565b60007f0000000000000000000000000000000000000000000000000000000000000000905090565b610c0b610e59565b600080600080610c1b86866109d9565b935093509350935060007f0000000000000000000000000000000000000000000000000000000000000000905060007f0000000000000000000000000000000000000000000000000000000000000000905060008060008086610c97578a89610c8491906113ff565b8a89610c9091906113cb565b8688610cb2565b8a89610ca391906113cb565b8a89610caf91906113ff565b87875b935093509350935060008273ffffffffffffffffffffffffffffffffffffffff166323b872dd33308f6040518463ffffffff1660e01b8152600401610cf993929190611312565b6020604051808303816000875af1158015610d18573d6000803e3d6000fd5b505050506040513d601f19601f82011682018060405250810190610d3c9190611375565b905080610d7e576040517f08c379a0000000000000000000000000000000000000000000000000000000008152600401610d759061152f565b60405180910390fd5b610d888585610f19565b8173ffffffffffffffffffffffffffffffffffffffff1663a9059cbb338d6040518363ffffffff1660e01b8152600401610dc39291906113a2565b6020604051808303816000875af1158015610de2573d6000803e3d6000fd5b505050506040513d601f19601f82011682018060405250810190610e069190611375565b508a8c7fdb587d878116df0bdd4fe154699aa2c5f439da001cc811dfd05d9f589fc5a8ee8585604051610e3a929190611056565b60405180910390a35050505050505050505050610e55610f2b565b5050565b600260005403610e95576040517f3ee5aeb500000000000000000000000000000000000000000000000000000000815260040160405180910390fd5b6002600081905550565b60006003821115610f065781905060006001600284610ebe91906112e1565b610ec891906113cb565b90505b81811015610f00578091506002818285610ee591906112e1565b610eef91906113cb565b610ef991906112e1565b9050610ecb565b50610f14565b60008214610f1357600190505b5b919050565b81600181905550806002819055505050565b6001600081905550565b6000819050919050565b610f4881610f35565b82525050565b6000604082019050610f636000830185610f3f565b610f706020830184610f3f565b9392505050565b600080fd5b610f8581610f35565b8114610f9057600080fd5b50565b600081359050610fa281610f7c565b92915050565b600060208284031215610fbe57610fbd610f77565b5b6000610fcc84828501610f93565b91505092915050565b60008060408385031215610fec57610feb610f77565b5b6000610ffa85828601610f93565b925050602061100b85828601610f93565b9150509250929050565b600073ffffffffffffffffffffffffffffffffffffffff82169050919050565b600061104082611015565b9050919050565b61105081611035565b82525050565b600060408201905061106b6000830185611047565b6110786020830184611047565b9392505050565b61108881611035565b811461109357600080fd5b50565b6000813590506110a58161107f565b92915050565b600080604083850312156110c2576110c1610f77565b5b60006110d085828601611096565b92505060206110e185828601610f93565b9150509250929050565b60008115159050919050565b611100816110eb565b82525050565b600060808201905061111b6000830187610f3f565b6111286020830186610f3f565b6111356040830185610f3f565b61114260608301846110f7565b95945050505050565b600060ff82169050919050565b6111618161114b565b82525050565b600060208201905061117c6000830184611158565b92915050565b600082825260208201905092915050565b7f6c697175696469747920746f6b656e2069732076616c69640000000000000000600082015250565b60006111c9601883611182565b91506111d482611193565b602082019050919050565b600060208201905081810360008301526111f8816111bc565b9050919050565b60008151905061120e81610f7c565b92915050565b60006020828403121561122a57611229610f77565b5b6000611238848285016111ff565b91505092915050565b7f4e487b7100000000000000000000000000000000000000000000000000000000600052601160045260246000fd5b600061127b82610f35565b915061128683610f35565b925082820261129481610f35565b915082820484148315176112ab576112aa611241565b5b5092915050565b7f4e487b7100000000000000000000000000000000000000000000000000000000600052601260045260246000fd5b60006112ec82610f35565b91506112f783610f35565b925082611307576113066112b2565b5b828204905092915050565b60006060820190506113276000830186611047565b6113346020830185611047565b6113416040830184610f3f565b949350505050565b611352816110eb565b811461135d57600080fd5b50565b60008151905061136f81611349565b92915050565b60006020828403121561138b5761138a610f77565b5b600061139984828501611360565b91505092915050565b60006040820190506113b76000830185611047565b6113c46020830184610f3f565b9392505050565b60006113d682610f35565b91506113e183610f35565b92508282019050808211156113f9576113f8611241565b5b92915050565b600061140a82610f35565b915061141583610f35565b925082820390508181111561142d5761142c611241565b5b92915050565b7f496e76616c696420746f6b656e00000000000000000000000000000000000000600082015250565b6000611469600d83611182565b915061147482611433565b602082019050919050565b600060208201905081810360008301526114988161145c565b9050919050565b600061ffff82169050919050565b60006114b88261149f565b91506114c38361149f565b9250828203905061ffff8111156114dd576114dc611241565b5b92915050565b7f53776170206661696c6564000000000000000000000000000000000000000000600082015250565b6000611519600b83611182565b9150611524826114e3565b602082019050919050565b600060208201905081810360008301526115488161150c565b905091905056fea2646970667358221220bb819d097dad7f17adf5e24c6cc901fa657108a15b2bfcd9d8f9b7f62c9ccf4c64736f6c634300081b0033608060405234801561001057600080fd5b50604051611b51380380611b518339818101604052810190610032919061031e565b8173ffffffffffffffffffffffffffffffffffffffff166395d89b416040518163ffffffff1660e01b8152600401600060405180830381865afa15801561007d573d6000803e3d6000fd5b505050506040513d6000823e3d601f19601f820116820180604052508101906100a691906104bf565b8173ffffffffffffffffffffffffffffffffffffffff166395d89b416040518163ffffffff1660e01b8152600401600060405180830381865afa1580156100f1573d6000803e3d6000fd5b505050506040513d6000823e3d601f19601f8201168201806040525081019061011a91906104bf565b60405160200161012b9291906105e7565b6040516020818303038152906040528273ffffffffffffffffffffffffffffffffffffffff166395d89b416040518163ffffffff1660e01b8152600401600060405180830381865afa158015610185573d6000803e3d6000fd5b505050506040513d6000823e3d601f19601f820116820180604052508101906101ae91906104bf565b8273ffffffffffffffffffffffffffffffffffffffff166395d89b416040518163ffffffff1660e01b8152600401600060405180830381865afa1580156101f9573d6000803e3d6000fd5b505050506040513d6000823e3d601f19601f8201168201806040525081019061022291906104bf565b604051602001610233929190610621565b60405160208183030381529060405281600390816102519190610866565b5080600490816102619190610866565b50505033600560006101000a81548173ffffffffffffffffffffffffffffffffffffffff021916908373ffffffffffffffffffffffffffffffffffffffff1602179055505050610938565b6000604051905090565b600080fd5b600080fd5b600073ffffffffffffffffffffffffffffffffffffffff82169050919050565b60006102eb826102c0565b9050919050565b6102fb816102e0565b811461030657600080fd5b50565b600081519050610318816102f2565b92915050565b60008060408385031215610335576103346102b6565b5b600061034385828601610309565b925050602061035485828601610309565b9150509250929050565b600080fd5b600080fd5b6000601f19601f8301169050919050565b7f4e487b7100000000000000000000000000000000000000000000000000000000600052604160045260246000fd5b6103b182610368565b810181811067ffffffffffffffff821117156103d0576103cf610379565b5b80604052505050565b60006103e36102ac565b90506103ef82826103a8565b919050565b600067ffffffffffffffff82111561040f5761040e610379565b5b61041882610368565b9050602081019050919050565b60005b83811015610443578082015181840152602081019050610428565b60008484015250505050565b600061046261045d846103f4565b6103d9565b90508281526020810184848401111561047e5761047d610363565b5b610489848285610425565b509392505050565b600082601f8301126104a6576104a561035e565b5b81516104b684826020860161044f565b91505092915050565b6000602082840312156104d5576104d46102b6565b5b600082015167ffffffffffffffff8111156104f3576104f26102bb565b5b6104ff84828501610491565b91505092915050565b600081905092915050565b7f4c502d0000000000000000000000000000000000000000000000000000000000600082015250565b6000610549600383610508565b915061055482610513565b600382019050919050565b600081519050919050565b60006105758261055f565b61057f8185610508565b935061058f818560208601610425565b80840191505092915050565b7f2d00000000000000000000000000000000000000000000000000000000000000600082015250565b60006105d1600183610508565b91506105dc8261059b565b600182019050919050565b60006105f28261053c565b91506105fe828561056a565b9150610609826105c4565b9150610615828461056a565b91508190509392505050565b600061062c8261053c565b9150610638828561056a565b9150610644828461056a565b91508190509392505050565b7f4e487b7100000000000000000000000000000000000000000000000000000000600052602260045260246000fd5b6000600282049050600182168061069757607f821691505b6020821081036106aa576106a9610650565b5b50919050565b60008190508160005260206000209050919050565b60006020601f8301049050919050565b600082821b905092915050565b6000600883026107127fffffffffffffffffffffffffffffffffffffffffffffffffffffffffffffffff826106d5565b61071c86836106d5565b95508019841693508086168417925050509392505050565b6000819050919050565b6000819050919050565b600061076361075e61075984610734565b61073e565b610734565b9050919050565b6000819050919050565b61077d83610748565b6107916107898261076a565b8484546106e2565b825550505050565b600090565b6107a6610799565b6107b1818484610774565b505050565b5b818110156107d5576107ca60008261079e565b6001810190506107b7565b5050565b601f82111561081a576107eb816106b0565b6107f4846106c5565b81016020851015610803578190505b61081761080f856106c5565b8301826107b6565b50505b505050565b600082821c905092915050565b600061083d6000198460080261081f565b1980831691505092915050565b6000610856838361082c565b9150826002028217905092915050565b61086f8261055f565b67ffffffffffffffff81111561088857610887610379565b5b610892825461067f565b61089d8282856107d9565b600060209050601f8311600181146108d057600084156108be578287015190505b6108c8858261084a565b865550610930565b601f1984166108de866106b0565b60005b82811015610906578489015182556001820191506020850194506020810190506108e1565b86831015610923578489015161091f601f89168261082c565b8355505b6001600288020188555050505b505050505050565b61120a806109476000396000f3fe608060405234801561001057600080fd5b50600436106100b45760003560e01c806340c10f191161007157806340c10f191461019157806370a08231146101ad57806395d89b41146101dd5780639dc29fac146101fb578063a9059cbb14610217578063dd62ed3e14610247576100b4565b806306fdde03146100b9578063095ea7b3146100d757806316f0115b1461010757806318160ddd1461012557806323b872dd14610143578063313ce56714610173575b600080fd5b6100c1610277565b6040516100ce9190610d86565b60405180910390f35b6100f160048036038101906100ec9190610e41565b610309565b6040516100fe9190610e9c565b60405180910390f35b61010f61032c565b60405161011c9190610ec6565b60405180910390f35b61012d610352565b60405161013a9190610ef0565b60405180910390f35b61015d60048036038101906101589190610f0b565b61035c565b60405161016a9190610e9c565b60405180910390f35b61017b61038b565b6040516101889190610f7a565b60405180910390f35b6101ab60048036038101906101a69190610e41565b610394565b005b6101c760048036038101906101c29190610f95565b610432565b6040516101d49190610ef0565b60405180910390f35b6101e561047a565b6040516101f29190610d86565b60405180910390f35b61021560048036038101906102109190610e41565b61050c565b005b610231600480360381019061022c9190610e41565b6105aa565b60405161023e9190610e9c565b60405180910390f35b610261600480360381019061025c9190610fc2565b6105cd565b60405161026e9190610ef0565b60405180910390f35b60606003805461028690611031565b80601f01602080910402602001604051908101604052809291908181526020018280546102b290611031565b80156102ff5780601f106102d4576101008083540402835291602001916102ff565b820191906000526020600020905b8154815290600101906020018083116102e257829003601f168201915b5050505050905090565b600080610314610654565b905061032181858561065c565b600191505092915050565b600560009054906101000a900473ffffffffffffffffffffffffffffffffffffffff1681565b6000600254905090565b600080610367610654565b905061037485828561066e565b61037f858585610702565b60019150509392505050565b60006012905090565b600560009054906101000a900473ffffffffffffffffffffffffffffffffffffffff1673ffffffffffffffffffffffffffffffffffffffff163373ffffffffffffffffffffffffffffffffffffffff1614610424576040517f08c379a000000000000000000000000000000000000000000000000000000000815260040161041b906110ae565b60405180910390fd5b61042e82826107f6565b5050565b60008060008373ffffffffffffffffffffffffffffffffffffffff1673ffffffffffffffffffffffffffffffffffffffff168152602001908152602001600020549050919050565b60606004805461048990611031565b80601f01602080910402602001604051908101604052809291908181526020018280546104b590611031565b80156105025780601f106104d757610100808354040283529160200191610502565b820191906000526020600020905b8154815290600101906020018083116104e557829003601f168201915b5050505050905090565b600560009054906101000a900473ffffffffffffffffffffffffffffffffffffffff1673ffffffffffffffffffffffffffffffffffffffff163373ffffffffffffffffffffffffffffffffffffffff161461059c576040517f08c379a00000000000000000000000000000000000000000000000000000000081526004016105939061111a565b60405180910390fd5b6105a68282610878565b5050565b6000806105b5610654565b90506105c2818585610702565b600191505092915050565b6000600160008473ffffffffffffffffffffffffffffffffffffffff1673ffffffffffffffffffffffffffffffffffffffff16815260200190815260200160002060008373ffffffffffffffffffffffffffffffffffffffff1673ffffffffffffffffffffffffffffffffffffffff16815260200190815260200160002054905092915050565b600033905090565b61066983838360016108fa565b505050565b600061067a84846105cd565b90507fffffffffffffffffffffffffffffffffffffffffffffffffffffffffffffffff81146106fc57818110156106ec578281836040517ffb8f41b20000000000000000000000000000000000000000000000000000000081526004016106e39392919061113a565b60405180910390fd5b6106fb848484840360006108fa565b5b50505050565b600073ffffffffffffffffffffffffffffffffffffffff168373ffffffffffffffffffffffffffffffffffffffff16036107745760006040517f96c6fd1e00000000000000000000000000000000000000000000000000000000815260040161076b9190610ec6565b60405180910390fd5b600073ffffffffffffffffffffffffffffffffffffffff168273ffffffffffffffffffffffffffffffffffffffff16036107e65760006040517fec442f050000000000000000000000000000000000000000000000000000000081526004016107dd9190610ec6565b60405180910390fd5b6107f1838383610ad1565b505050565b600073ffffffffffffffffffffffffffffffffffffffff168273ffffffffffffffffffffffffffffffffffffffff16036108685760006040517fec442f0500000000000000000000000000000000000000000000000000000000815260040161085f9190610ec6565b60405180910390fd5b61087460008383610ad1565b5050565b600073ffffffffffffffffffffffffffffffffffffffff168273ffffffffffffffffffffffffffffffffffffffff16036108ea5760006040517f96c6fd1e0000000000000000000000000000000000000000000000000000000081526004016108e19190610ec6565b60405180910390fd5b6108f682600083610ad1565b5050565b600073ffffffffffffffffffffffffffffffffffffffff168473ffffffffffffffffffffffffffffffffffffffff160361096c5760006040517fe602df050000000000000000000000000000000000000000000000000000000081526004016109639190610ec6565b60405180910390fd5b600073ffffffffffffffffffffffffffffffffffffffff168373ffffffffffffffffffffffffffffffffffffffff16036109de5760006040517f94280d620000000000000000000000000000000000000000000000000000000081526004016109d59190610ec6565b60405180910390fd5b81600160008673ffffffffffffffffffffffffffffffffffffffff1673ffffffffffffffffffffffffffffffffffffffff16815260200190815260200160002060008573ffffffffffffffffffffffffffffffffffffffff1673ffffffffffffffffffffffffffffffffffffffff168152602001908152602001600020819055508015610acb578273ffffffffffffffffffffffffffffffffffffffff168473ffffffffffffffffffffffffffffffffffffffff167f8c5be1e5ebec7d5bd14f71427d1e84f3dd0314c0f7b2291e5b200ac8c7c3b92584604051610ac29190610ef0565b60405180910390a35b50505050565b600073ffffffffffffffffffffffffffffffffffffffff168373ffffffffffffffffffffffffffffffffffffffff1603610b23578060026000828254610b1791906111a0565b92505081905550610bf6565b60008060008573ffffffffffffffffffffffffffffffffffffffff1673ffffffffffffffffffffffffffffffffffffffff16815260200190815260200160002054905081811015610baf578381836040517fe450d38c000000000000000000000000000000000000000000000000000000008152600401610ba69392919061113a565b60405180910390fd5b8181036000808673ffffffffffffffffffffffffffffffffffffffff1673ffffffffffffffffffffffffffffffffffffffff16815260200190815260200160002081905550505b600073ffffffffffffffffffffffffffffffffffffffff168273ffffffffffffffffffffffffffffffffffffffff1603610c3f5780600260008282540392505081905550610c8c565b806000808473ffffffffffffffffffffffffffffffffffffffff1673ffffffffffffffffffffffffffffffffffffffff168152602001908152602001600020600082825401925050819055505b8173ffffffffffffffffffffffffffffffffffffffff168373ffffffffffffffffffffffffffffffffffffffff167fddf252ad1be2c89b69c2b068fc378daa952ba7f163c4a11628f55a4df523b3ef83604051610ce99190610ef0565b60405180910390a3505050565b600081519050919050565b600082825260208201905092915050565b60005b83811015610d30578082015181840152602081019050610d15565b60008484015250505050565b6000601f19601f8301169050919050565b6000610d5882610cf6565b610d628185610d01565b9350610d72818560208601610d12565b610d7b81610d3c565b840191505092915050565b60006020820190508181036000830152610da08184610d4d565b905092915050565b600080fd5b600073ffffffffffffffffffffffffffffffffffffffff82169050919050565b6000610dd882610dad565b9050919050565b610de881610dcd565b8114610df357600080fd5b50565b600081359050610e0581610ddf565b92915050565b6000819050919050565b610e1e81610e0b565b8114610e2957600080fd5b50565b600081359050610e3b81610e15565b92915050565b60008060408385031215610e5857610e57610da8565b5b6000610e6685828601610df6565b9250506020610e7785828601610e2c565b9150509250929050565b60008115159050919050565b610e9681610e81565b82525050565b6000602082019050610eb16000830184610e8d565b92915050565b610ec081610dcd565b82525050565b6000602082019050610edb6000830184610eb7565b92915050565b610eea81610e0b565b82525050565b6000602082019050610f056000830184610ee1565b92915050565b600080600060608486031215610f2457610f23610da8565b5b6000610f3286828701610df6565b9350506020610f4386828701610df6565b9250506040610f5486828701610e2c565b9150509250925092565b600060ff82169050919050565b610f7481610f5e565b82525050565b6000602082019050610f8f6000830184610f6b565b92915050565b600060208284031215610fab57610faa610da8565b5b6000610fb984828501610df6565b91505092915050565b60008060408385031215610fd957610fd8610da8565b5b6000610fe785828601610df6565b9250506020610ff885828601610df6565b9150509250929050565b7f4e487b7100000000000000000000000000000000000000000000000000000000600052602260045260246000fd5b6000600282049050600182168061104957607f821691505b60208210810361105c5761105b611002565b5b50919050565b7f4f6e6c7920706f6f6c2063616e206d696e740000000000000000000000000000600082015250565b6000611098601283610d01565b91506110a382611062565b602082019050919050565b600060208201905081810360008301526110c78161108b565b9050919050565b7f4f6e6c7920706f6f6c2063616e206275726e0000000000000000000000000000600082015250565b6000611104601283610d01565b915061110f826110ce565b602082019050919050565b60006020820190508181036000830152611133816110f7565b9050919050565b600060608201905061114f6000830186610eb7565b61115c6020830185610ee1565b6111696040830184610ee1565b949350505050565b7f4e487b7100000000000000000000000000000000000000000000000000000000600052601160045260246000fd5b60006111ab82610e0b565b91506111b683610e0b565b92508282019050808211156111ce576111cd611171565b5b9291505056fea2646970667358221220b69be0bb137e5d83bc59c298b8a0342a9c77e554e0f0d674bc2783e097fe5a7f64736f6c634300081b0033",
  "linkReferences": {},
  "deployedLinkReferences": {}
}