{
  "_format": "hh-sol-artifact-1",
  "contractName": "Vault",
  "sourceName": "contracts/Vault.sol",
  "abi": [
    {
      "inputs": [
        {
          "internalType": "address",
          "name": "initialOwner",
          "type": "address"
        }
      ],
      "stateMutability": "nonpayable",
      "type": "constructor"
    },
    {
      "inputs": [],
      "name": "AccessControlBadConfirmation",
      "type": "error"
    },
    {
      "inputs": [
        {
          "internalType": "address",
          "name": "account",
          "type": "address"
        },
        {
          "internalType": "bytes32",
          "name": "neededRole",
          "type": "bytes32"
        }
      ],
      "name": "AccessControlUnauthorizedAccount",
      "type": "error"
    },
    {
      "inputs": [
        {
          "internalType": "address",
          "name": "target",
          "type": "address"
        }
      ],
      "name": "AddressEmptyCode",
      "type": "error"
    },
    {
      "inputs": [
        {
          "internalType": "address",
          "name": "account",
          "type": "address"
        }
      ],
      "name": "AddressInsufficientBalance",
      "type": "error"
    },
    {
      "inputs": [],
      "name": "FailedInnerCall",
      "type": "error"
    },
    {
      "inputs": [
        {
          "internalType": "address",
          "name": "owner",
          "type": "address"
        }
      ],
      "name": "OwnableInvalidOwner",
      "type": "error"
    },
    {
      "inputs": [
        {
          "internalType": "address",
          "name": "account",
          "type": "address"
        }
      ],
      "name": "OwnableUnauthorizedAccount",
      "type": "error"
    },
    {
      "inputs": [
        {
          "internalType": "address",
          "name": "token",
          "type": "address"
        }
      ],
      "name": "SafeERC20FailedOperation",
      "type": "error"
    },
    {
      "anonymous": false,
      "inputs": [
        {
          "indexed": true,
          "internalType": "address",
          "name": "previousOwner",
          "type": "address"
        },
        {
          "indexed": true,
          "internalType": "address",
          "name": "newOwner",
          "type": "address"
        }
      ],
      "name": "OwnershipTransferred",
      "type": "event"
    },
    {
      "anonymous": false,
      "inputs": [
        {
          "indexed": true,
          "internalType": "bytes32",
          "name": "role",
          "type": "bytes32"
        },
        {
          "indexed": true,
          "internalType": "bytes32",
          "name": "previousAdminRole",
          "type": "bytes32"
        },
        {
          "indexed": true,
          "internalType": "bytes32",
          "name": "newAdminRole",
          "type": "bytes32"
        }
      ],
      "name": "RoleAdminChanged",
      "type": "event"
    },
    {
      "anonymous": false,
      "inputs": [
        {
          "indexed": true,
          "internalType": "bytes32",
          "name": "role",
          "type": "bytes32"
        },
        {
          "indexed": true,
          "internalType": "address",
          "name": "account",
          "type": "address"
        },
        {
          "indexed": true,
          "internalType": "address",
          "name": "sender",
          "type": "address"
        }
      ],
      "name": "RoleGranted",
      "type": "event"
    },
    {
      "anonymous": false,
      "inputs": [
        {
          "indexed": true,
          "internalType": "bytes32",
          "name": "role",
          "type": "bytes32"
        },
        {
          "indexed": true,
          "internalType": "address",
          "name": "account",
          "type": "address"
        },
        {
          "indexed": true,
          "internalType": "address",
          "name": "sender",
          "type": "address"
        }
      ],
      "name": "RoleRevoked",
      "type": "event"
    },
    {
      "inputs": [],
      "name": "DEFAULT_ADMIN_ROLE",
      "outputs": [
        {
          "internalType": "bytes32",
          "name": "",
          "type": "bytes32"
        }
      ],
      "stateMutability": "view",
      "type": "function"
    },
    {
      "inputs": [],
      "name": "WITHDRAWER_ROLE",
      "outputs": [
        {
          "internalType": "bytes32",
          "name": "",
          "type": "bytes32"
        }
      ],
      "stateMutability": "view",
      "type": "function"
    },
    {
      "inputs": [
        {
          "internalType": "uint256",
          "name": "_amount",
          "type": "uint256"
        }
      ],
      "name": "deposit",
      "outputs": [],
      "stateMutability": "nonpayable",
      "type": "function"
    },
    {
      "inputs": [
        {
          "internalType": "bytes32",
          "name": "role",
          "type": "bytes32"
        }
      ],
      "name": "getRoleAdmin",
      "outputs": [
        {
          "internalType": "bytes32",
          "name": "",
          "type": "bytes32"
        }
      ],
      "stateMutability": "view",
      "type": "function"
    },
    {
      "inputs": [
        {
          "internalType": "bytes32",
          "name": "role",
          "type": "bytes32"
        },
        {
          "internalType": "address",
          "name": "account",
          "type": "address"
        }
      ],
      "name": "grantRole",
      "outputs": [],
      "stateMutability": "nonpayable",
      "type": "function"
    },
    {
      "inputs": [
        {
          "internalType": "bytes32",
          "name": "role",
          "type": "bytes32"
        },
        {
          "internalType": "address",
          "name": "account",
          "type": "address"
        }
      ],
      "name": "hasRole",
      "outputs": [
        {
          "internalType": "bool",
          "name": "",
          "type": "bool"
        }
      ],
      "stateMutability": "view",
      "type": "function"
    },
    {
      "inputs": [],
      "name": "maxWithDrawAmount",
      "outputs": [
        {
          "internalType": "uint256",
          "name": "",
          "type": "uint256"
        }
      ],
      "stateMutability": "view",
      "type": "function"
    },
    {
      "inputs": [],
      "name": "owner",
      "outputs": [
        {
          "internalType": "address",
          "name": "",
          "type": "address"
        }
      ],
      "stateMutability": "view",
      "type": "function"
    },
    {
      "inputs": [],
      "name": "renounceOwnership",
      "outputs": [],
      "stateMutability": "nonpayable",
      "type": "function"
    },
    {
      "inputs": [
        {
          "internalType": "bytes32",
          "name": "role",
          "type": "bytes32"
        },
        {
          "internalType": "address",
          "name": "callerConfirmation",
          "type": "address"
        }
      ],
      "name": "renounceRole",
      "outputs": [],
      "stateMutability": "nonpayable",
      "type": "function"
    },
    {
      "inputs": [
        {
          "internalType": "bytes32",
          "name": "role",
          "type": "bytes32"
        },
        {
          "internalType": "address",
          "name": "account",
          "type": "address"
        }
      ],
      "name": "revokeRole",
      "outputs": [],
      "stateMutability": "nonpayable",
      "type": "function"
    },
    {
      "inputs": [
        {
          "internalType": "uint256",
          "name": "_maxAmount",
          "type": "uint256"
        }
      ],
      "name": "setMaxWithdrawAmount",
      "outputs": [],
      "stateMutability": "nonpayable",
      "type": "function"
    },
    {
      "inputs": [
        {
          "internalType": "contract IERC20",
          "name": "_token",
          "type": "address"
        }
      ],
      "name": "setToken",
      "outputs": [],
      "stateMutability": "nonpayable",
      "type": "function"
    },
    {
      "inputs": [
        {
          "internalType": "bool",
          "name": "_isEnable",
          "type": "bool"
        }
      ],
      "name": "setWithdrawEnable",
      "outputs": [],
      "stateMutability": "nonpayable",
      "type": "function"
    },
    {
      "inputs": [
        {
          "internalType": "bytes4",
          "name": "interfaceId",
          "type": "bytes4"
        }
      ],
      "name": "supportsInterface",
      "outputs": [
        {
          "internalType": "bool",
          "name": "",
          "type": "bool"
        }
      ],
      "stateMutability": "view",
      "type": "function"
    },
    {
      "inputs": [
        {
          "internalType": "address",
          "name": "newOwner",
          "type": "address"
        }
      ],
      "name": "transferOwnership",
      "outputs": [],
      "stateMutability": "nonpayable",
      "type": "function"
    },
    {
      "inputs": [],
      "name": "withDrawEnable",
      "outputs": [
        {
          "internalType": "bool",
          "name": "",
          "type": "bool"
        }
      ],
      "stateMutability": "view",
      "type": "function"
    },
    {
      "inputs": [
        {
          "internalType": "uint256",
          "name": "_amount",
          "type": "uint256"
        },
        {
          "internalType": "address",
          "name": "_to",
          "type": "address"
        }
      ],
      "name": "withdraw",
      "outputs": [],
      "stateMutability": "nonpayable",
      "type": "function"
    }
  ],
  "bytecode": "0x608060405234801561001057600080fd5b50604051611aef380380611aef83398181016040528101906100329190610366565b80600073ffffffffffffffffffffffffffffffffffffffff168173ffffffffffffffffffffffffffffffffffffffff16036100a55760006040517f1e4fbdf700000000000000000000000000000000000000000000000000000000815260040161009c91906103a2565b60405180910390fd5b6100b4816100cf60201b60201c565b506100c86000801b8261019360201b60201c565b50506103bd565b60008060009054906101000a900473ffffffffffffffffffffffffffffffffffffffff169050816000806101000a81548173ffffffffffffffffffffffffffffffffffffffff021916908373ffffffffffffffffffffffffffffffffffffffff1602179055508173ffffffffffffffffffffffffffffffffffffffff168173ffffffffffffffffffffffffffffffffffffffff167f8be0079c531659141344cd1fd0a4f28419497f9722a3daafe3b4186f6b6457e060405160405180910390a35050565b60006101a5838361029060201b60201c565b61028557600180600085815260200190815260200160002060000160008473ffffffffffffffffffffffffffffffffffffffff1673ffffffffffffffffffffffffffffffffffffffff16815260200190815260200160002060006101000a81548160ff0219169083151502179055506102226102fb60201b60201c565b73ffffffffffffffffffffffffffffffffffffffff168273ffffffffffffffffffffffffffffffffffffffff16847f2f8788117e7eff1d82e926ec794901d17c78024a50270940304540a733656f0d60405160405180910390a46001905061028a565b600090505b92915050565b60006001600084815260200190815260200160002060000160008373ffffffffffffffffffffffffffffffffffffffff1673ffffffffffffffffffffffffffffffffffffffff16815260200190815260200160002060009054906101000a900460ff16905092915050565b600033905090565b600080fd5b600073ffffffffffffffffffffffffffffffffffffffff82169050919050565b600061033382610308565b9050919050565b61034381610328565b811461034e57600080fd5b50565b6000815190506103608161033a565b92915050565b60006020828403121561037c5761037b610303565b5b600061038a84828501610351565b91505092915050565b61039c81610328565b82525050565b60006020820190506103b76000830184610393565b92915050565b611723806103cc6000396000f3fe608060405234801561001057600080fd5b50600436106101155760003560e01c80638da5cb5b116100a2578063b9d7c70111610071578063b9d7c701146102b6578063bc83c53c146102d4578063d547741f146102f2578063df74e0281461030e578063f2fde38b1461032a57610115565b80638da5cb5b1461022e57806391d148541461024c578063a217fddf1461027c578063b6b55f251461029a57610115565b80632f2ff15d116100e95780632f2ff15d146101b257806336568abe146101ce578063715018a6146101ea578063827a560b146101f457806385f438c11461021057610115565b8062f714ce1461011a57806301ffc9a714610136578063144fa6d714610166578063248a9ca314610182575b600080fd5b610134600480360381019061012f91906110c9565b610346565b005b610150600480360381019061014b9190611161565b6104fd565b60405161015d91906111a9565b60405180910390f35b610180600480360381019061017b9190611202565b610577565b005b61019c60048036038101906101979190611265565b6105c3565b6040516101a991906112a1565b60405180910390f35b6101cc60048036038101906101c791906112bc565b6105e3565b005b6101e860048036038101906101e391906112bc565b610605565b005b6101f2610680565b005b61020e60048036038101906102099190611328565b610694565b005b6102186106b9565b60405161022591906112a1565b60405180910390f35b6102366106dd565b6040516102439190611364565b60405180910390f35b610266600480360381019061026191906112bc565b610706565b60405161027391906111a9565b60405180910390f35b610284610771565b60405161029191906112a1565b60405180910390f35b6102b460048036038101906102af919061137f565b610778565b005b6102be610887565b6040516102cb91906113bb565b60405180910390f35b6102dc61088d565b6040516102e991906111a9565b60405180910390f35b61030c600480360381019061030791906112bc565b6108a0565b005b6103286004803603810190610323919061137f565b6108c2565b005b610344600480360381019061033f91906113d6565b6108d4565b005b61034e61095a565b73ffffffffffffffffffffffffffffffffffffffff1661036c6106dd565b73ffffffffffffffffffffffffffffffffffffffff1614806103bb57506103ba7f10dac8c06a04bec0b551627dad28bc00d6516b0caacd1c7b345fcdb5211334e46103b561095a565b610706565b5b6103c457600080fd5b600460009054906101000a900460ff16610413576040517f08c379a000000000000000000000000000000000000000000000000000000000815260040161040a90611460565b60405180910390fd5b600354821115610458576040517f08c379a000000000000000000000000000000000000000000000000000000000815260040161044f906114cc565b60405180910390fd5b600260009054906101000a900473ffffffffffffffffffffffffffffffffffffffff1673ffffffffffffffffffffffffffffffffffffffff1663a9059cbb82846040518363ffffffff1660e01b81526004016104b59291906114ec565b6020604051808303816000875af11580156104d4573d6000803e3d6000fd5b505050506040513d601f19601f820116820180604052508101906104f8919061152a565b505050565b60007f7965db0b000000000000000000000000000000000000000000000000000000007bffffffffffffffffffffffffffffffffffffffffffffffffffffffff1916827bffffffffffffffffffffffffffffffffffffffffffffffffffffffff19161480610570575061056f82610962565b5b9050919050565b61057f6109cc565b80600260006101000a81548173ffffffffffffffffffffffffffffffffffffffff021916908373ffffffffffffffffffffffffffffffffffffffff16021790555050565b600060016000838152602001908152602001600020600101549050919050565b6105ec826105c3565b6105f581610a53565b6105ff8383610a67565b50505050565b61060d61095a565b73ffffffffffffffffffffffffffffffffffffffff168173ffffffffffffffffffffffffffffffffffffffff1614610671576040517f6697b23200000000000000000000000000000000000000000000000000000000815260040160405180910390fd5b61067b8282610b58565b505050565b6106886109cc565b6106926000610c4b565b565b61069c6109cc565b80600460006101000a81548160ff02191690831515021790555050565b7f10dac8c06a04bec0b551627dad28bc00d6516b0caacd1c7b345fcdb5211334e481565b60008060009054906101000a900473ffffffffffffffffffffffffffffffffffffffff16905090565b60006001600084815260200190815260200160002060000160008373ffffffffffffffffffffffffffffffffffffffff1673ffffffffffffffffffffffffffffffffffffffff16815260200190815260200160002060009054906101000a900460ff16905092915050565b6000801b81565b80600260009054906101000a900473ffffffffffffffffffffffffffffffffffffffff1673ffffffffffffffffffffffffffffffffffffffff166370a08231336040518263ffffffff1660e01b81526004016107d49190611364565b602060405180830381865afa1580156107f1573d6000803e3d6000fd5b505050506040513d601f19601f82011682018060405250810190610815919061156c565b1015610856576040517f08c379a000000000000000000000000000000000000000000000000000000000815260040161084d906115e5565b60405180910390fd5b610884600260009054906101000a900473ffffffffffffffffffffffffffffffffffffffff16333084610d0f565b50565b60035481565b600460009054906101000a900460ff1681565b6108a9826105c3565b6108b281610a53565b6108bc8383610b58565b50505050565b6108ca6109cc565b8060038190555050565b6108dc6109cc565b600073ffffffffffffffffffffffffffffffffffffffff168173ffffffffffffffffffffffffffffffffffffffff160361094e5760006040517f1e4fbdf70000000000000000000000000000000000000000000000000000000081526004016109459190611364565b60405180910390fd5b61095781610c4b565b50565b600033905090565b60007f01ffc9a7000000000000000000000000000000000000000000000000000000007bffffffffffffffffffffffffffffffffffffffffffffffffffffffff1916827bffffffffffffffffffffffffffffffffffffffffffffffffffffffff1916149050919050565b6109d461095a565b73ffffffffffffffffffffffffffffffffffffffff166109f26106dd565b73ffffffffffffffffffffffffffffffffffffffff1614610a5157610a1561095a565b6040517f118cdaa7000000000000000000000000000000000000000000000000000000008152600401610a489190611364565b60405180910390fd5b565b610a6481610a5f61095a565b610d91565b50565b6000610a738383610706565b610b4d57600180600085815260200190815260200160002060000160008473ffffffffffffffffffffffffffffffffffffffff1673ffffffffffffffffffffffffffffffffffffffff16815260200190815260200160002060006101000a81548160ff021916908315150217905550610aea61095a565b73ffffffffffffffffffffffffffffffffffffffff168273ffffffffffffffffffffffffffffffffffffffff16847f2f8788117e7eff1d82e926ec794901d17c78024a50270940304540a733656f0d60405160405180910390a460019050610b52565b600090505b92915050565b6000610b648383610706565b15610c405760006001600085815260200190815260200160002060000160008473ffffffffffffffffffffffffffffffffffffffff1673ffffffffffffffffffffffffffffffffffffffff16815260200190815260200160002060006101000a81548160ff021916908315150217905550610bdd61095a565b73ffffffffffffffffffffffffffffffffffffffff168273ffffffffffffffffffffffffffffffffffffffff16847ff6391f5c32d9c69d2a47ea670b442974b53935d1edc7fd64eb21e047a839171b60405160405180910390a460019050610c45565b600090505b92915050565b60008060009054906101000a900473ffffffffffffffffffffffffffffffffffffffff169050816000806101000a81548173ffffffffffffffffffffffffffffffffffffffff021916908373ffffffffffffffffffffffffffffffffffffffff1602179055508173ffffffffffffffffffffffffffffffffffffffff168173ffffffffffffffffffffffffffffffffffffffff167f8be0079c531659141344cd1fd0a4f28419497f9722a3daafe3b4186f6b6457e060405160405180910390a35050565b610d8b848573ffffffffffffffffffffffffffffffffffffffff166323b872dd868686604051602401610d4493929190611605565b604051602081830303815290604052915060e01b6020820180517bffffffffffffffffffffffffffffffffffffffffffffffffffffffff8381831617835250505050610de2565b50505050565b610d9b8282610706565b610dde5780826040517fe2517d3f000000000000000000000000000000000000000000000000000000008152600401610dd592919061163c565b60405180910390fd5b5050565b6000610e0d828473ffffffffffffffffffffffffffffffffffffffff16610e7990919063ffffffff16565b90506000815114158015610e32575080806020019051810190610e30919061152a565b155b15610e7457826040517f5274afe7000000000000000000000000000000000000000000000000000000008152600401610e6b9190611364565b60405180910390fd5b505050565b6060610e8783836000610e8f565b905092915050565b606081471015610ed657306040517fcd786059000000000000000000000000000000000000000000000000000000008152600401610ecd9190611364565b60405180910390fd5b6000808573ffffffffffffffffffffffffffffffffffffffff168486604051610eff91906116d6565b60006040518083038185875af1925050503d8060008114610f3c576040519150601f19603f3d011682016040523d82523d6000602084013e610f41565b606091505b5091509150610f51868383610f5c565b925050509392505050565b606082610f7157610f6c82610feb565b610fe3565b60008251148015610f99575060008473ffffffffffffffffffffffffffffffffffffffff163b145b15610fdb57836040517f9996b315000000000000000000000000000000000000000000000000000000008152600401610fd29190611364565b60405180910390fd5b819050610fe4565b5b9392505050565b600081511115610ffe5780518082602001fd5b6040517f1425ea4200000000000000000000000000000000000000000000000000000000815260040160405180910390fd5b600080fd5b6000819050919050565b61104881611035565b811461105357600080fd5b50565b6000813590506110658161103f565b92915050565b600073ffffffffffffffffffffffffffffffffffffffff82169050919050565b60006110968261106b565b9050919050565b6110a68161108b565b81146110b157600080fd5b50565b6000813590506110c38161109d565b92915050565b600080604083850312156110e0576110df611030565b5b60006110ee85828601611056565b92505060206110ff858286016110b4565b9150509250929050565b60007fffffffff0000000000000000000000000000000000000000000000000000000082169050919050565b61113e81611109565b811461114957600080fd5b50565b60008135905061115b81611135565b92915050565b60006020828403121561117757611176611030565b5b60006111858482850161114c565b91505092915050565b60008115159050919050565b6111a38161118e565b82525050565b60006020820190506111be600083018461119a565b92915050565b60006111cf8261108b565b9050919050565b6111df816111c4565b81146111ea57600080fd5b50565b6000813590506111fc816111d6565b92915050565b60006020828403121561121857611217611030565b5b6000611226848285016111ed565b91505092915050565b6000819050919050565b6112428161122f565b811461124d57600080fd5b50565b60008135905061125f81611239565b92915050565b60006020828403121561127b5761127a611030565b5b600061128984828501611250565b91505092915050565b61129b8161122f565b82525050565b60006020820190506112b66000830184611292565b92915050565b600080604083850312156112d3576112d2611030565b5b60006112e185828601611250565b92505060206112f2858286016110b4565b9150509250929050565b6113058161118e565b811461131057600080fd5b50565b600081359050611322816112fc565b92915050565b60006020828403121561133e5761133d611030565b5b600061134c84828501611313565b91505092915050565b61135e8161108b565b82525050565b60006020820190506113796000830184611355565b92915050565b60006020828403121561139557611394611030565b5b60006113a384828501611056565b91505092915050565b6113b581611035565b82525050565b60006020820190506113d060008301846113ac565b92915050565b6000602082840312156113ec576113eb611030565b5b60006113fa848285016110b4565b91505092915050565b600082825260208201905092915050565b7f7769746844726177456e61626c65206973206e6f7420617661696c61626c6500600082015250565b600061144a601f83611403565b915061145582611414565b602082019050919050565b600060208201905081810360008301526114798161143d565b9050919050565b7f457863656564206d6178696d756d20616d6f756e740000000000000000000000600082015250565b60006114b6601583611403565b91506114c182611480565b602082019050919050565b600060208201905081810360008301526114e5816114a9565b9050919050565b60006040820190506115016000830185611355565b61150e60208301846113ac565b9392505050565b600081519050611524816112fc565b92915050565b6000602082840312156115405761153f611030565b5b600061154e84828501611515565b91505092915050565b6000815190506115668161103f565b92915050565b60006020828403121561158257611581611030565b5b600061159084828501611557565b91505092915050565b7f496e73756666696369656e74206163636f756e742062616c616e636500000000600082015250565b60006115cf601c83611403565b91506115da82611599565b602082019050919050565b600060208201905081810360008301526115fe816115c2565b9050919050565b600060608201905061161a6000830186611355565b6116276020830185611355565b61163460408301846113ac565b949350505050565b60006040820190506116516000830185611355565b61165e6020830184611292565b9392505050565b600081519050919050565b600081905092915050565b60005b8381101561169957808201518184015260208101905061167e565b60008484015250505050565b60006116b082611665565b6116ba8185611670565b93506116ca81856020860161167b565b80840191505092915050565b60006116e282846116a5565b91508190509291505056fea2646970667358221220b827dd1105625f9c75971f2991e63253f4f97fcbed709f06da97da62c35e2a6564736f6c634300081b0033",
  "linkReferences": {},
  "deployedLinkReferences": {}
}